{
  "contractName": "MultiSigWallet",
  "abi": [
    {
      "constant": true,
      "inputs": [
        {
          "name": "",
          "type": "uint256"
        }
      ],
      "name": "owners",
      "outputs": [
        {
          "name": "",
          "type": "address"
        }
      ],
      "payable": false,
      "stateMutability": "view",
      "type": "function"
    },
    {
      "constant": true,
      "inputs": [
        {
          "name": "",
          "type": "address"
        }
      ],
      "name": "isOwner",
      "outputs": [
        {
          "name": "",
          "type": "bool"
        }
      ],
      "payable": false,
      "stateMutability": "view",
      "type": "function"
    },
    {
      "constant": true,
      "inputs": [
        {
          "name": "",
          "type": "uint256"
        },
        {
          "name": "",
          "type": "address"
        }
      ],
      "name": "confirmations",
      "outputs": [
        {
          "name": "",
          "type": "bool"
        }
      ],
      "payable": false,
      "stateMutability": "view",
      "type": "function"
    },
    {
      "constant": true,
      "inputs": [
        {
          "name": "",
          "type": "uint256"
        }
      ],
      "name": "transactions",
      "outputs": [
        {
          "name": "destination",
          "type": "address"
        },
        {
          "name": "value",
          "type": "uint256"
        },
        {
          "name": "data",
          "type": "bytes"
        },
        {
          "name": "executed",
          "type": "bool"
        }
      ],
      "payable": false,
      "stateMutability": "view",
      "type": "function"
    },
    {
      "constant": true,
      "inputs": [],
      "name": "transactionCount",
      "outputs": [
        {
          "name": "",
          "type": "uint256"
        }
      ],
      "payable": false,
      "stateMutability": "view",
      "type": "function"
    },
    {
      "constant": true,
      "inputs": [],
      "name": "MAX_OWNER_COUNT",
      "outputs": [
        {
          "name": "",
          "type": "uint256"
        }
      ],
      "payable": false,
      "stateMutability": "view",
      "type": "function"
    },
    {
      "constant": true,
      "inputs": [],
      "name": "required",
      "outputs": [
        {
          "name": "",
          "type": "uint256"
        }
      ],
      "payable": false,
      "stateMutability": "view",
      "type": "function"
    },
    {
      "inputs": [
        {
          "name": "_owners",
          "type": "address[]"
        },
        {
          "name": "_required",
          "type": "uint256"
        }
      ],
      "payable": false,
      "stateMutability": "nonpayable",
      "type": "constructor"
    },
    {
      "payable": true,
      "stateMutability": "payable",
      "type": "fallback"
    },
    {
      "anonymous": false,
      "inputs": [
        {
          "indexed": true,
          "name": "sender",
          "type": "address"
        },
        {
          "indexed": true,
          "name": "transactionId",
          "type": "uint256"
        }
      ],
      "name": "Confirmation",
      "type": "event"
    },
    {
      "anonymous": false,
      "inputs": [
        {
          "indexed": true,
          "name": "sender",
          "type": "address"
        },
        {
          "indexed": true,
          "name": "transactionId",
          "type": "uint256"
        }
      ],
      "name": "Revocation",
      "type": "event"
    },
    {
      "anonymous": false,
      "inputs": [
        {
          "indexed": true,
          "name": "transactionId",
          "type": "uint256"
        }
      ],
      "name": "Submission",
      "type": "event"
    },
    {
      "anonymous": false,
      "inputs": [
        {
          "indexed": true,
          "name": "transactionId",
          "type": "uint256"
        }
      ],
      "name": "Execution",
      "type": "event"
    },
    {
      "anonymous": false,
      "inputs": [
        {
          "indexed": true,
          "name": "transactionId",
          "type": "uint256"
        }
      ],
      "name": "ExecutionFailure",
      "type": "event"
    },
    {
      "anonymous": false,
      "inputs": [
        {
          "indexed": true,
          "name": "sender",
          "type": "address"
        },
        {
          "indexed": false,
          "name": "value",
          "type": "uint256"
        }
      ],
      "name": "Deposit",
      "type": "event"
    },
    {
      "anonymous": false,
      "inputs": [
        {
          "indexed": true,
          "name": "owner",
          "type": "address"
        }
      ],
      "name": "OwnerAddition",
      "type": "event"
    },
    {
      "anonymous": false,
      "inputs": [
        {
          "indexed": true,
          "name": "owner",
          "type": "address"
        }
      ],
      "name": "OwnerRemoval",
      "type": "event"
    },
    {
      "anonymous": false,
      "inputs": [
        {
          "indexed": false,
          "name": "required",
          "type": "uint256"
        }
      ],
      "name": "RequirementChange",
      "type": "event"
    },
    {
      "constant": false,
      "inputs": [
        {
          "name": "owner",
          "type": "address"
        }
      ],
      "name": "addOwner",
      "outputs": [],
      "payable": false,
      "stateMutability": "nonpayable",
      "type": "function"
    },
    {
      "constant": false,
      "inputs": [
        {
          "name": "owner",
          "type": "address"
        }
      ],
      "name": "removeOwner",
      "outputs": [],
      "payable": false,
      "stateMutability": "nonpayable",
      "type": "function"
    },
    {
      "constant": false,
      "inputs": [
        {
          "name": "owner",
          "type": "address"
        },
        {
          "name": "newOwner",
          "type": "address"
        }
      ],
      "name": "replaceOwner",
      "outputs": [],
      "payable": false,
      "stateMutability": "nonpayable",
      "type": "function"
    },
    {
      "constant": false,
      "inputs": [
        {
          "name": "_required",
          "type": "uint256"
        }
      ],
      "name": "changeRequirement",
      "outputs": [],
      "payable": false,
      "stateMutability": "nonpayable",
      "type": "function"
    },
    {
      "constant": false,
      "inputs": [
        {
          "name": "destination",
          "type": "address"
        },
        {
          "name": "value",
          "type": "uint256"
        },
        {
          "name": "data",
          "type": "bytes"
        }
      ],
      "name": "submitTransaction",
      "outputs": [
        {
          "name": "transactionId",
          "type": "uint256"
        }
      ],
      "payable": false,
      "stateMutability": "nonpayable",
      "type": "function"
    },
    {
      "constant": false,
      "inputs": [
        {
          "name": "transactionId",
          "type": "uint256"
        }
      ],
      "name": "confirmTransaction",
      "outputs": [],
      "payable": false,
      "stateMutability": "nonpayable",
      "type": "function"
    },
    {
      "constant": false,
      "inputs": [
        {
          "name": "transactionId",
          "type": "uint256"
        }
      ],
      "name": "revokeConfirmation",
      "outputs": [],
      "payable": false,
      "stateMutability": "nonpayable",
      "type": "function"
    },
    {
      "constant": false,
      "inputs": [
        {
          "name": "transactionId",
          "type": "uint256"
        }
      ],
      "name": "executeTransaction",
      "outputs": [],
      "payable": false,
      "stateMutability": "nonpayable",
      "type": "function"
    },
    {
      "constant": true,
      "inputs": [
        {
          "name": "transactionId",
          "type": "uint256"
        }
      ],
      "name": "isConfirmed",
      "outputs": [
        {
          "name": "",
          "type": "bool"
        }
      ],
      "payable": false,
      "stateMutability": "view",
      "type": "function"
    },
    {
      "constant": true,
      "inputs": [
        {
          "name": "transactionId",
          "type": "uint256"
        }
      ],
      "name": "getConfirmationCount",
      "outputs": [
        {
          "name": "count",
          "type": "uint256"
        }
      ],
      "payable": false,
      "stateMutability": "view",
      "type": "function"
    },
    {
      "constant": true,
      "inputs": [
        {
          "name": "pending",
          "type": "bool"
        },
        {
          "name": "executed",
          "type": "bool"
        }
      ],
      "name": "getTransactionCount",
      "outputs": [
        {
          "name": "count",
          "type": "uint256"
        }
      ],
      "payable": false,
      "stateMutability": "view",
      "type": "function"
    },
    {
      "constant": true,
      "inputs": [],
      "name": "getOwners",
      "outputs": [
        {
          "name": "",
          "type": "address[]"
        }
      ],
      "payable": false,
      "stateMutability": "view",
      "type": "function"
    },
    {
      "constant": true,
      "inputs": [
        {
          "name": "transactionId",
          "type": "uint256"
        }
      ],
      "name": "getConfirmations",
      "outputs": [
        {
          "name": "_confirmations",
          "type": "address[]"
        }
      ],
      "payable": false,
      "stateMutability": "view",
      "type": "function"
    },
    {
      "constant": true,
      "inputs": [
        {
          "name": "from",
          "type": "uint256"
        },
        {
          "name": "to",
          "type": "uint256"
        },
        {
          "name": "pending",
          "type": "bool"
        },
        {
          "name": "executed",
          "type": "bool"
        }
      ],
      "name": "getTransactionIds",
      "outputs": [
        {
          "name": "_transactionIds",
          "type": "uint256[]"
        }
      ],
      "payable": false,
      "stateMutability": "view",
      "type": "function"
    }
  ],
  "bytecode": "0x606060405234156200001057600080fd5b604051620023d4380380620023d48339810160405280805182019190602001805190602001909190505060008251826000821115156200004f57600080fd5b603282111515156200006057600080fd5b6000811115156200007057600080fd5b8181111515156200008057600080fd5b600092505b8451831015620001d157600260008685815181101515620000a257fe5b9060200190602002015173ffffffffffffffffffffffffffffffffffffffff1673ffffffffffffffffffffffffffffffffffffffff16815260200190815260200160002060009054906101000a900460ff16158015620001475750600073ffffffffffffffffffffffffffffffffffffffff1685848151811015156200012457fe5b9060200190602002015173ffffffffffffffffffffffffffffffffffffffff1614155b15156200015357600080fd5b60016002600087868151811015156200016857fe5b9060200190602002015173ffffffffffffffffffffffffffffffffffffffff1673ffffffffffffffffffffffffffffffffffffffff16815260200190815260200160002060006101000a81548160ff021916908315150217905550828060010193505062000085565b8460039080519060200190620001e9929190620001fc565b50836004819055505050505050620002d1565b82805482825590600052602060002090810192821562000278579160200282015b82811115620002775782518260006101000a81548173ffffffffffffffffffffffffffffffffffffffff021916908373ffffffffffffffffffffffffffffffffffffffff160217905550916020019190600101906200021d565b5b5090506200028791906200028b565b5090565b620002ce91905b80821115620002ca57600081816101000a81549073ffffffffffffffffffffffffffffffffffffffff02191690555060010162000292565b5090565b90565b6120f380620002e16000396000f30060606040526004361061011d576000357c0100000000000000000000000000000000000000000000000000000000900463ffffffff168063025e7c2714610177578063173825d9146101da57806320ea8d86146102135780632f54bf6e146102365780633411c81c1461028757806354741525146102e15780637065cb4814610325578063784547a71461035e5780638b51d13f146103995780639ace38c2146103d0578063a0e67e2b146104ce578063a8abe69a14610538578063b5dc40c3146105cf578063b77bf60014610647578063ba51a6df14610670578063c01a8c8414610693578063c6427474146106b6578063d74f8edd1461074f578063dc8452cd14610778578063e20056e6146107a1578063ee22610b146107f9575b6000341115610175573373ffffffffffffffffffffffffffffffffffffffff167fe1fffcc4923d04b559f4d29a8bfc6cda04eb5b0d3c460751c2402c5c5cc9109c346040518082815260200191505060405180910390a25b005b341561018257600080fd5b610198600480803590602001909190505061081c565b604051808273ffffffffffffffffffffffffffffffffffffffff1673ffffffffffffffffffffffffffffffffffffffff16815260200191505060405180910390f35b34156101e557600080fd5b610211600480803573ffffffffffffffffffffffffffffffffffffffff1690602001909190505061085b565b005b341561021e57600080fd5b6102346004808035906020019091905050610af7565b005b341561024157600080fd5b61026d600480803573ffffffffffffffffffffffffffffffffffffffff16906020019091905050610c9f565b604051808215151515815260200191505060405180910390f35b341561029257600080fd5b6102c7600480803590602001909190803573ffffffffffffffffffffffffffffffffffffffff16906020019091905050610cbf565b604051808215151515815260200191505060405180910390f35b34156102ec57600080fd5b61030f600480803515159060200190919080351515906020019091905050610cee565b6040518082815260200191505060405180910390f35b341561033057600080fd5b61035c600480803573ffffffffffffffffffffffffffffffffffffffff16906020019091905050610d63565b005b341561036957600080fd5b61037f6004808035906020019091905050610f6c565b604051808215151515815260200191505060405180910390f35b34156103a457600080fd5b6103ba6004808035906020019091905050611052565b6040518082815260200191505060405180910390f35b34156103db57600080fd5b6103f1600480803590602001909190505061111e565b604051808573ffffffffffffffffffffffffffffffffffffffff1673ffffffffffffffffffffffffffffffffffffffff16815260200184815260200180602001831515151581526020018281038252848181546001816001161561010002031660029004815260200191508054600181600116156101000203166002900480156104bc5780601f10610491576101008083540402835291602001916104bc565b820191906000526020600020905b81548152906001019060200180831161049f57829003601f168201915b50509550505050505060405180910390f35b34156104d957600080fd5b6104e161117a565b6040518080602001828103825283818151815260200191508051906020019060200280838360005b83811015610524578082015181840152602081019050610509565b505050509050019250505060405180910390f35b341561054357600080fd5b61057860048080359060200190919080359060200190919080351515906020019091908035151590602001909190505061120e565b6040518080602001828103825283818151815260200191508051906020019060200280838360005b838110156105bb5780820151818401526020810190506105a0565b505050509050019250505060405180910390f35b34156105da57600080fd5b6105f0600480803590602001909190505061134e565b6040518080602001828103825283818151815260200191508051906020019060200280838360005b83811015610633578082015181840152602081019050610618565b505050509050019250505060405180910390f35b341561065257600080fd5b61065a611578565b6040518082815260200191505060405180910390f35b341561067b57600080fd5b610691600480803590602001909190505061157e565b005b341561069e57600080fd5b6106b4600480803590602001909190505061163f565b005b34156106c157600080fd5b610739600480803573ffffffffffffffffffffffffffffffffffffffff1690602001909190803590602001909190803590602001908201803590602001908080601f01602080910402602001604051908101604052809392919081815260200183838082843782019150505050505091905050611832565b6040518082815260200191505060405180910390f35b341561075a57600080fd5b6107626118ab565b6040518082815260200191505060405180910390f35b341561078357600080fd5b61078b6118b0565b6040518082815260200191505060405180910390f35b34156107ac57600080fd5b6107f7600480803573ffffffffffffffffffffffffffffffffffffffff1690602001909190803573ffffffffffffffffffffffffffffffffffffffff169060200190919050506118b6565b005b341561080457600080fd5b61081a6004808035906020019091905050611bcd565b005b60038181548110151561082b57fe5b90600052602060002090016000915054906101000a900473ffffffffffffffffffffffffffffffffffffffff1681565b60003073ffffffffffffffffffffffffffffffffffffffff163373ffffffffffffffffffffffffffffffffffffffff1614151561089757600080fd5b81600260008273ffffffffffffffffffffffffffffffffffffffff1673ffffffffffffffffffffffffffffffffffffffff16815260200190815260200160002060009054906101000a900460ff1615156108f057600080fd5b6000600260008573ffffffffffffffffffffffffffffffffffffffff1673ffffffffffffffffffffffffffffffffffffffff16815260200190815260200160002060006101000a81548160ff021916908315150217905550600091505b600160038054905003821015610a91578273ffffffffffffffffffffffffffffffffffffffff1660038381548110151561098357fe5b906000526020600020900160009054906101000a900473ffffffffffffffffffffffffffffffffffffffff1673ffffffffffffffffffffffffffffffffffffffff161415610a845760036001600380549050038154811015156109e257fe5b906000526020600020900160009054906101000a900473ffffffffffffffffffffffffffffffffffffffff16600383815481101515610a1d57fe5b906000526020600020900160006101000a81548173ffffffffffffffffffffffffffffffffffffffff021916908373ffffffffffffffffffffffffffffffffffffffff1602179055506001600381818054905003915081610a7e9190611fa2565b50610a91565b818060010192505061094d565b6003805490506004541115610aaf57610aae60038054905061157e565b5b8273ffffffffffffffffffffffffffffffffffffffff167f8001553a916ef2f495d26a907cc54d96ed840d7bda71e73194bf5a9df7a76b9060405160405180910390a2505050565b33600260008273ffffffffffffffffffffffffffffffffffffffff1673ffffffffffffffffffffffffffffffffffffffff16815260200190815260200160002060009054906101000a900460ff161515610b5057600080fd5b81336001600083815260200190815260200160002060008273ffffffffffffffffffffffffffffffffffffffff1673ffffffffffffffffffffffffffffffffffffffff16815260200190815260200160002060009054906101000a900460ff161515610bbb57600080fd5b8360008082815260200190815260200160002060030160009054906101000a900460ff16151515610beb57600080fd5b60006001600087815260200190815260200160002060003373ffffffffffffffffffffffffffffffffffffffff1673ffffffffffffffffffffffffffffffffffffffff16815260200190815260200160002060006101000a81548160ff021916908315150217905550843373ffffffffffffffffffffffffffffffffffffffff167ff6a317157440607f36269043eb55f1287a5a19ba2216afeab88cd46cbcfb88e960405160405180910390a35050505050565b60026020528060005260406000206000915054906101000a900460ff1681565b60016020528160005260406000206020528060005260406000206000915091509054906101000a900460ff1681565b60008060008091505b600554821015610d5b5760008083815260200190815260200160002060030160009054906101000a900460ff169050848015610d31575080155b80610d425750838015610d415750805b5b15610d4e576001830192505b8180600101925050610cf7565b505092915050565b3073ffffffffffffffffffffffffffffffffffffffff163373ffffffffffffffffffffffffffffffffffffffff16141515610d9d57600080fd5b8060008173ffffffffffffffffffffffffffffffffffffffff1614151515610dc457600080fd5b81600260008273ffffffffffffffffffffffffffffffffffffffff1673ffffffffffffffffffffffffffffffffffffffff16815260200190815260200160002060009054906101000a900460ff16151515610e1e57600080fd5b600160038054905001600454600082111515610e3957600080fd5b60328211151515610e4957600080fd5b600081111515610e5857600080fd5b818111151515610e6757600080fd5b6001600260008773ffffffffffffffffffffffffffffffffffffffff1673ffffffffffffffffffffffffffffffffffffffff16815260200190815260200160002060006101000a81548160ff02191690831515021790555060038054806001018281610ed39190611fce565b9160005260206000209001600087909190916101000a81548173ffffffffffffffffffffffffffffffffffffffff021916908373ffffffffffffffffffffffffffffffffffffffff160217905550508473ffffffffffffffffffffffffffffffffffffffff167ff39e6e1eb0edcf53c221607b54b00cd28f3196fed0a24994dc308b8f611b682d60405160405180910390a25050505050565b6000806000809150600090505b60038054905081101561104a57600160008581526020019081526020016000206000600383815481101515610faa57fe5b906000526020600020900160009054906101000a900473ffffffffffffffffffffffffffffffffffffffff1673ffffffffffffffffffffffffffffffffffffffff1673ffffffffffffffffffffffffffffffffffffffff16815260200190815260200160002060009054906101000a900460ff161561102a576001820191505b60045482141561103d576001925061104b565b8080600101915050610f79565b5b5050919050565b600080600090505b6003805490508110156111185760016000848152602001908152602001600020600060038381548110151561108b57fe5b906000526020600020900160009054906101000a900473ffffffffffffffffffffffffffffffffffffffff1673ffffffffffffffffffffffffffffffffffffffff1673ffffffffffffffffffffffffffffffffffffffff16815260200190815260200160002060009054906101000a900460ff161561110b576001820191505b808060010191505061105a565b50919050565b60006020528060005260406000206000915090508060000160009054906101000a900473ffffffffffffffffffffffffffffffffffffffff169080600101549080600201908060030160009054906101000a900460ff16905084565b611182611ffa565b600380548060200260200160405190810160405280929190818152602001828054801561120457602002820191906000526020600020905b8160009054906101000a900473ffffffffffffffffffffffffffffffffffffffff1673ffffffffffffffffffffffffffffffffffffffff16815260200190600101908083116111ba575b5050505050905090565b61121661200e565b61121e61200e565b60008060006005546040518059106112335750595b9080825280602002602001820160405250935060009250600091505b6005548210156112d05760008083815260200190815260200160002060030160009054906101000a900460ff169050868015611289575080155b8061129a57508580156112995750805b5b156112c3578184848151811015156112ae57fe5b90602001906020020181815250506001830192505b818060010192505061124f565b8888036040518059106112e05750595b908082528060200260200182016040525094508891505b8782101561134257838281518110151561130d57fe5b90602001906020020151858a840381518110151561132757fe5b906020019060200201818152505081806001019250506112f7565b50505050949350505050565b611356611ffa565b61135e611ffa565b6000806003805490506040518059106113745750595b9080825280602002602001820160405250925060009150600090505b6003805490508110156114d3576001600086815260200190815260200160002060006003838154811015156113c157fe5b906000526020600020900160009054906101000a900473ffffffffffffffffffffffffffffffffffffffff1673ffffffffffffffffffffffffffffffffffffffff1673ffffffffffffffffffffffffffffffffffffffff16815260200190815260200160002060009054906101000a900460ff16156114c65760038181548110151561144957fe5b906000526020600020900160009054906101000a900473ffffffffffffffffffffffffffffffffffffffff16838381518110151561148357fe5b9060200190602002019073ffffffffffffffffffffffffffffffffffffffff16908173ffffffffffffffffffffffffffffffffffffffff16815250506001820191505b8080600101915050611390565b816040518059106114e15750595b90808252806020026020018201604052509350600090505b8181101561157057828181518110151561150f57fe5b90602001906020020151848281518110151561152757fe5b9060200190602002019073ffffffffffffffffffffffffffffffffffffffff16908173ffffffffffffffffffffffffffffffffffffffff168152505080806001019150506114f9565b505050919050565b60055481565b3073ffffffffffffffffffffffffffffffffffffffff163373ffffffffffffffffffffffffffffffffffffffff161415156115b857600080fd5b600380549050816000821115156115ce57600080fd5b603282111515156115de57600080fd5b6000811115156115ed57600080fd5b8181111515156115fc57600080fd5b826004819055507fa3f1ee9126a074d9326c682f561767f710e927faa811f7a99829d49dc421797a836040518082815260200191505060405180910390a1505050565b33600260008273ffffffffffffffffffffffffffffffffffffffff1673ffffffffffffffffffffffffffffffffffffffff16815260200190815260200160002060009054906101000a900460ff16151561169857600080fd5b81600073ffffffffffffffffffffffffffffffffffffffff1660008083815260200190815260200160002060000160009054906101000a900473ffffffffffffffffffffffffffffffffffffffff1673ffffffffffffffffffffffffffffffffffffffff161415151561170a57600080fd5b82336001600083815260200190815260200160002060008273ffffffffffffffffffffffffffffffffffffffff1673ffffffffffffffffffffffffffffffffffffffff16815260200190815260200160002060009054906101000a900460ff1615151561177657600080fd5b600180600087815260200190815260200160002060003373ffffffffffffffffffffffffffffffffffffffff1673ffffffffffffffffffffffffffffffffffffffff16815260200190815260200160002060006101000a81548160ff021916908315150217905550843373ffffffffffffffffffffffffffffffffffffffff167f4a504a94899432a9846e1aa406dceb1bcfd538bb839071d49d1e5e23f5be30ef60405160405180910390a361182b85611bcd565b5050505050565b600033600260008273ffffffffffffffffffffffffffffffffffffffff1673ffffffffffffffffffffffffffffffffffffffff16815260200190815260200160002060009054906101000a900460ff16151561188d57600080fd5b611898858585611e50565b91506118a38261163f565b509392505050565b603281565b60045481565b60003073ffffffffffffffffffffffffffffffffffffffff163373ffffffffffffffffffffffffffffffffffffffff161415156118f257600080fd5b82600260008273ffffffffffffffffffffffffffffffffffffffff1673ffffffffffffffffffffffffffffffffffffffff16815260200190815260200160002060009054906101000a900460ff16151561194b57600080fd5b82600260008273ffffffffffffffffffffffffffffffffffffffff1673ffffffffffffffffffffffffffffffffffffffff16815260200190815260200160002060009054906101000a900460ff161515156119a557600080fd5b600092505b600380549050831015611a90578473ffffffffffffffffffffffffffffffffffffffff166003848154811015156119dd57fe5b906000526020600020900160009054906101000a900473ffffffffffffffffffffffffffffffffffffffff1673ffffffffffffffffffffffffffffffffffffffff161415611a835783600384815481101515611a3557fe5b906000526020600020900160006101000a81548173ffffffffffffffffffffffffffffffffffffffff021916908373ffffffffffffffffffffffffffffffffffffffff160217905550611a90565b82806001019350506119aa565b6000600260008773ffffffffffffffffffffffffffffffffffffffff1673ffffffffffffffffffffffffffffffffffffffff16815260200190815260200160002060006101000a81548160ff0219169083151502179055506001600260008673ffffffffffffffffffffffffffffffffffffffff1673ffffffffffffffffffffffffffffffffffffffff16815260200190815260200160002060006101000a81548160ff0219169083151502179055508473ffffffffffffffffffffffffffffffffffffffff167f8001553a916ef2f495d26a907cc54d96ed840d7bda71e73194bf5a9df7a76b9060405160405180910390a28373ffffffffffffffffffffffffffffffffffffffff167ff39e6e1eb0edcf53c221607b54b00cd28f3196fed0a24994dc308b8f611b682d60405160405180910390a25050505050565b600033600260008273ffffffffffffffffffffffffffffffffffffffff1673ffffffffffffffffffffffffffffffffffffffff16815260200190815260200160002060009054906101000a900460ff161515611c2857600080fd5b82336001600083815260200190815260200160002060008273ffffffffffffffffffffffffffffffffffffffff1673ffffffffffffffffffffffffffffffffffffffff16815260200190815260200160002060009054906101000a900460ff161515611c9357600080fd5b8460008082815260200190815260200160002060030160009054906101000a900460ff16151515611cc357600080fd5b611ccc86610f6c565b15611e4857600080878152602001908152602001600020945060018560030160006101000a81548160ff0219169083151502179055508460000160009054906101000a900473ffffffffffffffffffffffffffffffffffffffff1673ffffffffffffffffffffffffffffffffffffffff168560010154866002016040518082805460018160011615610100020316600290048015611dab5780601f10611d8057610100808354040283529160200191611dab565b820191906000526020600020905b815481529060010190602001808311611d8e57829003601f168201915b505091505060006040518083038185876187965a03f19250505015611dfc57857f33e13ecb54c3076d8e8bb8c2881800a4d972b792045ffae98fdf46df365fed7560405160405180910390a2611e47565b857f526441bb6c1aba3c9a4a6ca1d6545da9c2333c8c48343ef398eb858d72b7923660405160405180910390a260008560030160006101000a81548160ff0219169083151502179055505b5b505050505050565b60008360008173ffffffffffffffffffffffffffffffffffffffff1614151515611e7957600080fd5b60055491506080604051908101604052808673ffffffffffffffffffffffffffffffffffffffff1681526020018581526020018481526020016000151581525060008084815260200190815260200160002060008201518160000160006101000a81548173ffffffffffffffffffffffffffffffffffffffff021916908373ffffffffffffffffffffffffffffffffffffffff160217905550602082015181600101556040820151816002019080519060200190611f38929190612022565b5060608201518160030160006101000a81548160ff0219169083151502179055509050506001600560008282540192505081905550817fc0ba8fe4b176c1714197d43b9cc6bcf797a4a7461c5fe8d0ef6e184ae7601e5160405160405180910390a2509392505050565b815481835581811511611fc957818360005260206000209182019101611fc891906120a2565b5b505050565b815481835581811511611ff557818360005260206000209182019101611ff491906120a2565b5b505050565b602060405190810160405280600081525090565b602060405190810160405280600081525090565b828054600181600116156101000203166002900490600052602060002090601f016020900481019282601f1061206357805160ff1916838001178555612091565b82800160010185558215612091579182015b82811115612090578251825591602001919060010190612075565b5b50905061209e91906120a2565b5090565b6120c491905b808211156120c05760008160009055506001016120a8565b5090565b905600a165627a7a723058202a12b5a07e7a171595aff51cfcb6776aec8f1cbd90227327ca382506907af0470029",
  "source": "pragma solidity 0.4.19;\n\n\n/**\n * @title Multisignature wallet\n * @dev Allows multiple parties to agree on transactions before execution\n * @author Stefan George <stefan.george@consensys.net>\n * @author Jakub Stefanski (https://github.com/jstefanski)\n */\ncontract MultiSigWallet {\n\n    uint256 constant public MAX_OWNER_COUNT = 50;\n\n    mapping (uint256 => Transaction) public transactions;\n    mapping (uint256 => mapping (address => bool)) public confirmations;\n\n    mapping (address => bool) public isOwner;\n    address[] public owners;\n\n    uint256 public required;\n    uint256 public transactionCount;\n\n    struct Transaction {\n        address destination;\n        uint256 value;\n        bytes data;\n        bool executed;\n    }\n\n    event Confirmation(address indexed sender, uint256 indexed transactionId);\n\n    event Revocation(address indexed sender, uint256 indexed transactionId);\n\n    event Submission(uint256 indexed transactionId);\n\n    event Execution(uint256 indexed transactionId);\n\n    event ExecutionFailure(uint256 indexed transactionId);\n\n    event Deposit(address indexed sender, uint256 value);\n\n    event OwnerAddition(address indexed owner);\n\n    event OwnerRemoval(address indexed owner);\n\n    event RequirementChange(uint256 required);\n\n    modifier onlyWallet() {\n        require(msg.sender == address(this));\n        _;\n    }\n\n    modifier onlyOwnerDoesNotExist(address owner) {\n        require(!isOwner[owner]);\n        _;\n    }\n\n    modifier onlyOwnerExists(address owner) {\n        require(isOwner[owner]);\n        _;\n    }\n\n    modifier onlyTransactionExists(uint256 transactionId) {\n        require(transactions[transactionId].destination != address(0));\n        _;\n    }\n\n    modifier onlyConfirmed(uint256 transactionId, address owner) {\n        require(confirmations[transactionId][owner]);\n        _;\n    }\n\n    modifier onlyNotConfirmed(uint256 transactionId, address owner) {\n        require(!confirmations[transactionId][owner]);\n        _;\n    }\n\n    modifier onlyNotExecuted(uint256 transactionId) {\n        require(!transactions[transactionId].executed);\n        _;\n    }\n\n    modifier onlyValid(address _address) {\n        require(_address != 0);\n        _;\n    }\n\n    modifier onlyValidRequirement(uint256 ownerCount, uint256 _required) {\n        require(ownerCount > 0);\n        require(ownerCount <= MAX_OWNER_COUNT);\n        require(_required > 0);\n        require(_required <= ownerCount);\n        _;\n    }\n\n    /**\n     * @dev Contract constructor sets initial owners and required number of confirmations\n     * @param _owners List of initial owners\n     * @param _required Number of required confirmations\n     */\n    function MultiSigWallet(address[] _owners, uint256 _required)\n    public\n    onlyValidRequirement(_owners.length, _required)\n    {\n        for (uint256 i = 0; i < _owners.length; i++) {\n            require(!isOwner[_owners[i]] && _owners[i] != address(0));\n\n            isOwner[_owners[i]] = true;\n        }\n\n        owners = _owners;\n        required = _required;\n    }\n\n    /**\n     * @dev Fallback function allows ETH deposits\n     */\n    function() public payable {\n        if (msg.value > 0) {\n            Deposit(msg.sender, msg.value);\n        }\n    }\n\n    /**\n     * @dev Add a new owner\n     * @dev Transaction has to be sent by wallet\n     * @param owner The address of a new owner\n     */\n    function addOwner(address owner)\n    public\n    onlyWallet\n    onlyValid(owner)\n    onlyOwnerDoesNotExist(owner)\n    onlyValidRequirement(owners.length + 1, required)\n    {\n        isOwner[owner] = true;\n        owners.push(owner);\n\n        OwnerAddition(owner);\n    }\n\n    /**\n     * @dev Remove an owner\n     * @dev Transaction has to be sent by wallet\n     * @param owner The address of an owner\n     */\n    function removeOwner(address owner)\n    public\n    onlyWallet\n    onlyOwnerExists(owner)\n    {\n        isOwner[owner] = false;\n\n        for (uint256 i = 0; i < owners.length - 1; i++) {\n            if (owners[i] == owner) {\n                owners[i] = owners[owners.length - 1];\n                owners.length -= 1;\n                break;\n            }\n        }\n\n        if (required > owners.length) {\n            changeRequirement(owners.length);\n        }\n\n        OwnerRemoval(owner);\n    }\n\n    /**\n     * @dev Replace the owner with a new owner\n     * @dev Transaction has to be sent by wallet\n     * @param owner The address of owner to be replaced\n     * @param newOwner The address of new owner\n     */\n    function replaceOwner(address owner, address newOwner)\n    public\n    onlyWallet\n    onlyOwnerExists(owner)\n    onlyOwnerDoesNotExist(newOwner)\n    {\n        for (uint256 i = 0; i < owners.length; i++) {\n            if (owners[i] == owner) {\n                owners[i] = newOwner;\n                break;\n            }\n        }\n\n        isOwner[owner] = false;\n        isOwner[newOwner] = true;\n\n        OwnerRemoval(owner);\n        OwnerAddition(newOwner);\n    }\n\n    /**\n     * @dev Change the number of required confirmations\n     * @dev Transaction has to be sent by wallet\n     * @param _required The number of required confirmations\n     */\n    function changeRequirement(uint256 _required)\n    public\n    onlyWallet\n    onlyValidRequirement(owners.length, _required)\n    {\n        required = _required;\n        RequirementChange(_required);\n    }\n\n    /**\n     * @dev Submit and confirm a transaction\n     * @dev Transaction has to be sent by wallet\n     * @param destination The transaction target address\n     * @param value The transaction ETH value\n     * @param data The transaction data payload\n     * @return A transaction ID\n     */\n    function submitTransaction(address destination, uint256 value, bytes data)\n    public\n    onlyOwnerExists(msg.sender)\n    returns (uint256 transactionId)\n    {\n        transactionId = addTransaction(destination, value, data);\n        confirmTransaction(transactionId);\n    }\n\n    /**\n     * @dev Confirm the transaction\n     * @param transactionId The transaction ID\n     */\n    function confirmTransaction(uint256 transactionId)\n    public\n    onlyOwnerExists(msg.sender)\n    onlyTransactionExists(transactionId)\n    onlyNotConfirmed(transactionId, msg.sender)\n    {\n        confirmations[transactionId][msg.sender] = true;\n        Confirmation(msg.sender, transactionId);\n\n        executeTransaction(transactionId);\n    }\n\n    /**\n     * @dev Revoke the transaction confirmation\n     * @param transactionId The transaction ID\n     */\n    function revokeConfirmation(uint256 transactionId)\n    public\n    onlyOwnerExists(msg.sender)\n    onlyConfirmed(transactionId, msg.sender)\n    onlyNotExecuted(transactionId)\n    {\n        confirmations[transactionId][msg.sender] = false;\n        Revocation(msg.sender, transactionId);\n    }\n\n    /**\n     * @dev Execute confirmed transaction\n     * @param transactionId The transaction ID\n     */\n    function executeTransaction(uint256 transactionId)\n    public\n    onlyOwnerExists(msg.sender)\n    onlyConfirmed(transactionId, msg.sender)\n    onlyNotExecuted(transactionId)\n    {\n        if (isConfirmed(transactionId)) {\n            Transaction storage txn = transactions[transactionId];\n            txn.executed = true;\n\n            /* solhint-disable avoid-call-value */\n            if (txn.destination.call.value(txn.value)(txn.data)) {\n                Execution(transactionId);\n            } else {\n                ExecutionFailure(transactionId);\n                txn.executed = false;\n            }\n            /* solhint-enable avoid-call-value */\n        }\n    }\n\n    /**\n     * @dev Check confirmation status of the transaction\n     * @param transactionId The transaction ID\n     * @return True if transaction is confirmed, otherwise False\n     */\n    function isConfirmed(uint256 transactionId)\n    public\n    view\n    returns (bool)\n    {\n        uint256 count = 0;\n        for (uint256 i=0; i < owners.length; i++) {\n            if (confirmations[transactionId][owners[i]]) {\n                count += 1;\n            }\n\n            if (count == required) {\n                return true;\n            }\n        }\n    }\n\n    /**\n     * @dev Get number of confirmations of the transaction\n     * @param transactionId The transaction ID\n     * @return Number of confirmations\n     */\n    function getConfirmationCount(uint256 transactionId)\n    public\n    view\n    returns (uint256 count)\n    {\n        for (uint256 i = 0; i < owners.length; i++) {\n            if (confirmations[transactionId][owners[i]]) {\n                count += 1;\n            }\n        }\n    }\n\n    /**\n     * @dev Get total number of transactions after filers are applied\n     * @param pending Include pending transactions\n     * @param executed Include executed transactions\n     * @return Total number of transactions after filters are applied\n     */\n    function getTransactionCount(bool pending, bool executed)\n    public\n    view\n    returns (uint256 count)\n    {\n        for (uint256 i = 0; i < transactionCount; i++) {\n            bool txExecuted = transactions[i].executed;\n\n            if ((pending && !txExecuted) || (executed && txExecuted)) {\n                count += 1;\n            }\n        }\n    }\n\n    /**\n     * @dev Get list of owners\n     * @return List of owner addresses\n     */\n    function getOwners()\n    public\n    view\n    returns (address[])\n    {\n        return owners;\n    }\n\n    /**\n     * @dev Get array with owner addresses that confirmed the transaction\n     * @param transactionId The transaction ID\n     * @return Array of owner addresses that confirmed the transaction\n     */\n    function getConfirmations(uint256 transactionId)\n    public\n    view\n    returns (address[] _confirmations)\n    {\n        address[] memory confirmationsTemp = new address[](owners.length);\n        uint256 count = 0;\n        uint256 i;\n\n        for (i = 0; i < owners.length; i++) {\n            if (confirmations[transactionId][owners[i]]) {\n                confirmationsTemp[count] = owners[i];\n                count += 1;\n            }\n        }\n\n        _confirmations = new address[](count);\n        for (i = 0; i < count; i++) {\n            _confirmations[i] = confirmationsTemp[i];\n        }\n    }\n\n    /**\n     * @dev Get list of transaction IDs in defined range\n     * @param from Index start position of transaction array\n     * @param to Index end position of transaction array\n     * @param pending Include pending transactions\n     * @param executed Include executed transactions\n     * @return Array of transaction IDs\n     */\n    function getTransactionIds(\n        uint256 from,\n        uint256 to,\n        bool pending,\n        bool executed\n    )\n    public\n    view\n    returns (uint256[] _transactionIds)\n    {\n        uint256[] memory transactionIdsTemp = new uint256[](transactionCount);\n        uint256 count = 0;\n        uint256 i;\n\n        for (i = 0; i < transactionCount; i++) {\n            bool txExecuted = transactions[i].executed;\n\n            if ((pending && !txExecuted) || (executed && txExecuted)) {\n                transactionIdsTemp[count] = i;\n                count += 1;\n            }\n        }\n\n        _transactionIds = new uint256[](to - from);\n        for (i = from; i < to; i++) {\n            _transactionIds[i - from] = transactionIdsTemp[i];\n        }\n    }\n\n    /**\n     * @dev Add a new transaction to the transaction mapping\n     * @param destination The transaction target address\n     * @param value The transaction ether value\n     * @param data The transaction data payload\n     * @return The transaction ID\n     */\n    function addTransaction(address destination, uint256 value, bytes data)\n    internal\n    onlyValid(destination)\n    returns (uint256 transactionId)\n    {\n        transactionId = transactionCount;\n        transactions[transactionId] = Transaction({\n            destination: destination,\n            value: value,\n            data: data,\n            executed: false\n        });\n        transactionCount += 1;\n\n        Submission(transactionId);\n    }\n}",
  "sourcePath": "/home/kruligh/src/pragmatic-holdings/contracts/contracts/MultiSigWallet.sol",
  "compiler": {
    "name": "solc",
    "version": "0.4.19+commit.c4cbbb05.Emscripten.clang"
  },
  "schemaVersion": "1.0.1",
  "updatedAt": "2018-03-27T11:24:17.821Z"
}