{
  "contractName": "PragmaticHodlings",
  "abi": [
    {
      "constant": false,
      "inputs": [],
      "name": "renounceOwnership",
      "outputs": [],
      "payable": false,
      "stateMutability": "nonpayable",
      "type": "function"
    },
    {
      "constant": true,
      "inputs": [],
      "name": "owner",
      "outputs": [
        {
          "name": "",
          "type": "address"
        }
      ],
      "payable": false,
      "stateMutability": "view",
      "type": "function"
    },
    {
      "constant": false,
      "inputs": [
        {
          "name": "_newOwner",
          "type": "address"
        }
      ],
      "name": "transferOwnership",
      "outputs": [],
      "payable": false,
      "stateMutability": "nonpayable",
      "type": "function"
    },
    {
      "anonymous": false,
      "inputs": [
        {
          "indexed": false,
          "name": "account",
          "type": "address"
        },
        {
          "indexed": false,
          "name": "joinDate",
          "type": "uint64"
        }
      ],
      "name": "HodlerAdded",
      "type": "event"
    },
    {
      "anonymous": false,
      "inputs": [
        {
          "indexed": false,
          "name": "account",
          "type": "address"
        }
      ],
      "name": "HodlerRemoved",
      "type": "event"
    },
    {
      "anonymous": false,
      "inputs": [
        {
          "indexed": false,
          "name": "token",
          "type": "address"
        },
        {
          "indexed": false,
          "name": "amount",
          "type": "uint256"
        }
      ],
      "name": "TokenSettled",
      "type": "event"
    },
    {
      "anonymous": false,
      "inputs": [
        {
          "indexed": true,
          "name": "previousOwner",
          "type": "address"
        }
      ],
      "name": "OwnershipRenounced",
      "type": "event"
    },
    {
      "anonymous": false,
      "inputs": [
        {
          "indexed": true,
          "name": "previousOwner",
          "type": "address"
        },
        {
          "indexed": true,
          "name": "newOwner",
          "type": "address"
        }
      ],
      "name": "OwnershipTransferred",
      "type": "event"
    },
    {
      "constant": false,
      "inputs": [
        {
          "name": "account",
          "type": "address"
        },
        {
          "name": "joinDate",
          "type": "uint64"
        }
      ],
      "name": "addHodler",
      "outputs": [],
      "payable": false,
      "stateMutability": "nonpayable",
      "type": "function"
    },
    {
      "constant": false,
      "inputs": [
        {
          "name": "account",
          "type": "address"
        }
      ],
      "name": "removeHodler",
      "outputs": [],
      "payable": false,
      "stateMutability": "nonpayable",
      "type": "function"
    },
    {
      "constant": false,
      "inputs": [
        {
          "name": "token",
          "type": "address"
        }
      ],
      "name": "settleToken",
      "outputs": [],
      "payable": false,
      "stateMutability": "nonpayable",
      "type": "function"
    },
    {
      "constant": true,
      "inputs": [
        {
          "name": "amount",
          "type": "uint256"
        }
      ],
      "name": "calculateShares",
      "outputs": [
        {
          "name": "",
          "type": "uint256[]"
        }
      ],
      "payable": false,
      "stateMutability": "view",
      "type": "function"
    },
    {
      "constant": true,
      "inputs": [],
      "name": "getHodlers",
      "outputs": [
        {
          "name": "",
          "type": "address[]"
        },
        {
          "name": "",
          "type": "uint64[]"
        }
      ],
      "payable": false,
      "stateMutability": "view",
      "type": "function"
    },
    {
      "constant": true,
      "inputs": [
        {
          "name": "account",
          "type": "address"
        }
      ],
      "name": "isHodler",
      "outputs": [
        {
          "name": "",
          "type": "bool"
        }
      ],
      "payable": false,
      "stateMutability": "view",
      "type": "function"
    }
  ],
  "bytecode": "0x6080604052336000806101000a81548173ffffffffffffffffffffffffffffffffffffffff021916908373ffffffffffffffffffffffffffffffffffffffff16021790555061159a806100536000396000f300608060405260043610610099576000357c0100000000000000000000000000000000000000000000000000000000900463ffffffff16806316511a671461009e5780633ec16194146100e157806352f37c4014610163578063715018a6146101be578063716210d8146101d55780638da5cb5b1461022c578063bee4b63a14610283578063cce356b5146102c6578063f2fde38b1461037a575b600080fd5b3480156100aa57600080fd5b506100df600480360381019080803573ffffffffffffffffffffffffffffffffffffffff1690602001909291905050506103bd565b005b3480156100ed57600080fd5b5061010c600480360381019080803590602001909291905050506104f2565b6040518080602001828103825283818151815260200191508051906020019060200280838360005b8381101561014f578082015181840152602081019050610134565b505050509050019250505060405180910390f35b34801561016f57600080fd5b506101a4600480360381019080803573ffffffffffffffffffffffffffffffffffffffff1690602001909291905050506106ed565b604051808215151515815260200191505060405180910390f35b3480156101ca57600080fd5b506101d361070a565b005b3480156101e157600080fd5b5061022a600480360381019080803573ffffffffffffffffffffffffffffffffffffffff169060200190929190803567ffffffffffffffff16906020019092919050505061080c565b005b34801561023857600080fd5b5061024161097b565b604051808273ffffffffffffffffffffffffffffffffffffffff1673ffffffffffffffffffffffffffffffffffffffff16815260200191505060405180910390f35b34801561028f57600080fd5b506102c4600480360381019080803573ffffffffffffffffffffffffffffffffffffffff1690602001909291905050506109a0565b005b3480156102d257600080fd5b506102db610d86565b604051808060200180602001838103835285818151815260200191508051906020019060200280838360005b83811015610322578082015181840152602081019050610307565b50505050905001838103825284818151815260200191508051906020019060200280838360005b83811015610364578082015181840152602081019050610349565b5050505090500194505050505060405180910390f35b34801561038657600080fd5b506103bb600480360381019080803573ffffffffffffffffffffffffffffffffffffffff169060200190929190505050610f21565b005b6000809054906101000a900473ffffffffffffffffffffffffffffffffffffffff1673ffffffffffffffffffffffffffffffffffffffff163373ffffffffffffffffffffffffffffffffffffffff1614151561041857600080fd5b80600073ffffffffffffffffffffffffffffffffffffffff168173ffffffffffffffffffffffffffffffffffffffff161415151561045557600080fd5b8161046a816001610f8890919063ffffffff16565b151561047557600080fd5b61048983600161103390919063ffffffff16565b507f683f0752ec47a36e05360cedb1361d65144ee41b81edf0a9981190d21941ff8b83604051808273ffffffffffffffffffffffffffffffffffffffff1673ffffffffffffffffffffffffffffffffffffffff16815260200191505060405180910390a1505050565b60608060008060006001600001805490506040519080825280602002602001820160405280156105315781602001602082028038833980820191505090505b50935060009250600091505b83518210156105eb5761059660016000018381548110151561055b57fe5b9060005260206000200160000160149054906101000a900467ffffffffffffffff1667ffffffffffffffff164261117f90919063ffffffff16565b84838151811015156105a457fe5b90602001906020020181815250506105dc84838151811015156105c357fe5b906020019060200201518461119890919063ffffffff16565b9250818060010192505061053d565b60009050600091505b835182101561067e576106398361062b868581518110151561061257fe5b90602001906020020151896111b490919063ffffffff16565b6111ec90919063ffffffff16565b848381518110151561064757fe5b9060200190602002018181525050838281518110151561066357fe5b906020019060200201518101905081806001019250506105f4565b808611156106e1576106c361069c828861117f90919063ffffffff16565b8560008151811015156106ab57fe5b9060200190602002015161119890919063ffffffff16565b8460008151811015156106d257fe5b90602001906020020181815250505b83945050505050919050565b6000610703826001610f8890919063ffffffff16565b9050919050565b6000809054906101000a900473ffffffffffffffffffffffffffffffffffffffff1673ffffffffffffffffffffffffffffffffffffffff163373ffffffffffffffffffffffffffffffffffffffff1614151561076557600080fd5b6000809054906101000a900473ffffffffffffffffffffffffffffffffffffffff1673ffffffffffffffffffffffffffffffffffffffff167ff8df31144d9c2f0f6b59d69b8b98abd5459d07f2742c4df920b25aae33c6482060405160405180910390a260008060006101000a81548173ffffffffffffffffffffffffffffffffffffffff021916908373ffffffffffffffffffffffffffffffffffffffff160217905550565b6000809054906101000a900473ffffffffffffffffffffffffffffffffffffffff1673ffffffffffffffffffffffffffffffffffffffff163373ffffffffffffffffffffffffffffffffffffffff1614151561086757600080fd5b81600073ffffffffffffffffffffffffffffffffffffffff168173ffffffffffffffffffffffffffffffffffffffff16141515156108a457600080fd5b826108b9816001610f8890919063ffffffff16565b1515156108c557600080fd5b828067ffffffffffffffff16421115156108de57600080fd5b6108f4858560016112029092919063ffffffff16565b507f4bda7a30e936a6a7d88023f6c88beb48ddfe327cd81bca8d16c67cbf230ba6738585604051808373ffffffffffffffffffffffffffffffffffffffff1673ffffffffffffffffffffffffffffffffffffffff1681526020018267ffffffffffffffff1667ffffffffffffffff1681526020019250505060405180910390a15050505050565b6000809054906101000a900473ffffffffffffffffffffffffffffffffffffffff1681565b6000606060008060009054906101000a900473ffffffffffffffffffffffffffffffffffffffff1673ffffffffffffffffffffffffffffffffffffffff163373ffffffffffffffffffffffffffffffffffffffff16141515610a0157600080fd5b600060016000018054905014151515610a1957600080fd5b8360008173ffffffffffffffffffffffffffffffffffffffff166370a08231306040518263ffffffff167c0100000000000000000000000000000000000000000000000000000000028152600401808273ffffffffffffffffffffffffffffffffffffffff1673ffffffffffffffffffffffffffffffffffffffff168152602001915050602060405180830381600087803b158015610ab757600080fd5b505af1158015610acb573d6000803e3d6000fd5b505050506040513d6020811015610ae157600080fd5b8101908080519060200190929190505050111515610afe57600080fd5b8473ffffffffffffffffffffffffffffffffffffffff166370a08231306040518263ffffffff167c0100000000000000000000000000000000000000000000000000000000028152600401808273ffffffffffffffffffffffffffffffffffffffff1673ffffffffffffffffffffffffffffffffffffffff168152602001915050602060405180830381600087803b158015610b9957600080fd5b505af1158015610bad573d6000803e3d6000fd5b505050506040513d6020811015610bc357600080fd5b81019080805190602001909291905050509350610bdf846104f2565b9250600091505b600160000180549050821015610d14578473ffffffffffffffffffffffffffffffffffffffff1663a9059cbb600160000184815481101515610c2457fe5b9060005260206000200160000160009054906101000a900473ffffffffffffffffffffffffffffffffffffffff168585815181101515610c6057fe5b906020019060200201516040518363ffffffff167c0100000000000000000000000000000000000000000000000000000000028152600401808373ffffffffffffffffffffffffffffffffffffffff1673ffffffffffffffffffffffffffffffffffffffff16815260200182815260200192505050600060405180830381600087803b158015610cef57600080fd5b505af1158015610d03573d6000803e3d6000fd5b505050508180600101925050610be6565b7f20df4650e147e41df756057eb439b3c26568234120d5cdf743130dfea03377518585604051808373ffffffffffffffffffffffffffffffffffffffff1673ffffffffffffffffffffffffffffffffffffffff1681526020018281526020019250505060405180910390a15050505050565b6060806060806000600160000180549050604051908082528060200260200182016040528015610dc55781602001602082028038833980820191505090505b509250600160000180549050604051908082528060200260200182016040528015610dff5781602001602082028038833980820191505090505b509150600090505b600160000180549050811015610f1457600160000181815481101515610e2957fe5b9060005260206000200160000160009054906101000a900473ffffffffffffffffffffffffffffffffffffffff168382815181101515610e6557fe5b9060200190602002019073ffffffffffffffffffffffffffffffffffffffff16908173ffffffffffffffffffffffffffffffffffffffff1681525050600160000181815481101515610eb357fe5b9060005260206000200160000160149054906101000a900467ffffffffffffffff168282815181101515610ee357fe5b9060200190602002019067ffffffffffffffff16908167ffffffffffffffff16815250508080600101915050610e07565b8282945094505050509091565b6000809054906101000a900473ffffffffffffffffffffffffffffffffffffffff1673ffffffffffffffffffffffffffffffffffffffff163373ffffffffffffffffffffffffffffffffffffffff16141515610f7c57600080fd5b610f8581611337565b50565b600080600090505b8360000180549050811015611027578273ffffffffffffffffffffffffffffffffffffffff168460000182815481101515610fc757fe5b9060005260206000200160000160009054906101000a900473ffffffffffffffffffffffffffffffffffffffff1673ffffffffffffffffffffffffffffffffffffffff16141561101a576001915061102c565b8080600101915050610f90565b600091505b5092915050565b6000806110408484610f88565b151561104f5760009150611178565b6110598484611431565b9050600184600001805490500381101561115b5783600001600185600001805490500381548110151561108857fe5b9060005260206000200184600001828154811015156110a357fe5b906000526020600020016000820160009054906101000a900473ffffffffffffffffffffffffffffffffffffffff168160000160006101000a81548173ffffffffffffffffffffffffffffffffffffffff021916908373ffffffffffffffffffffffffffffffffffffffff1602179055506000820160149054906101000a900467ffffffffffffffff168160000160146101000a81548167ffffffffffffffff021916908367ffffffffffffffff1602179055509050505b8360000180548091906001900361117291906114e1565b50600191505b5092915050565b600082821115151561118d57fe5b818303905092915050565b600081830190508281101515156111ab57fe5b80905092915050565b6000808314156111c757600090506111e6565b81830290508183828115156111d857fe5b041415156111e257fe5b8090505b92915050565b600081838115156111f957fe5b04905092915050565b60008073ffffffffffffffffffffffffffffffffffffffff168373ffffffffffffffffffffffffffffffffffffffff16148061124457506112438484610f88565b5b156112525760009050611330565b8360000160408051908101604052808573ffffffffffffffffffffffffffffffffffffffff1681526020018467ffffffffffffffff1681525090806001815401808255809150509060018203906000526020600020016000909192909190915060008201518160000160006101000a81548173ffffffffffffffffffffffffffffffffffffffff021916908373ffffffffffffffffffffffffffffffffffffffff16021790555060208201518160000160146101000a81548167ffffffffffffffff021916908367ffffffffffffffff160217905550505050600190505b9392505050565b600073ffffffffffffffffffffffffffffffffffffffff168173ffffffffffffffffffffffffffffffffffffffff161415151561137357600080fd5b8073ffffffffffffffffffffffffffffffffffffffff166000809054906101000a900473ffffffffffffffffffffffffffffffffffffffff1673ffffffffffffffffffffffffffffffffffffffff167f8be0079c531659141344cd1fd0a4f28419497f9722a3daafe3b4186f6b6457e060405160405180910390a3806000806101000a81548173ffffffffffffffffffffffffffffffffffffffff021916908373ffffffffffffffffffffffffffffffffffffffff16021790555050565b600080600090505b83600001805490508110156114cf578273ffffffffffffffffffffffffffffffffffffffff16846000018281548110151561147057fe5b9060005260206000200160000160009054906101000a900473ffffffffffffffffffffffffffffffffffffffff1673ffffffffffffffffffffffffffffffffffffffff1614156114c2578091506114da565b8080600101915050611439565b600015156114d957fe5b5b5092915050565b81548183558181111561150857818360005260206000209182019101611507919061150d565b5b505050565b61156b91905b8082111561156757600080820160006101000a81549073ffffffffffffffffffffffffffffffffffffffff02191690556000820160146101000a81549067ffffffffffffffff021916905550600101611513565b5090565b905600a165627a7a723058208de165ba6a42589d2380568508b7a4c71fdd728b5fd89055196fb4b59fbff5f40029",
  "source": "pragma solidity 0.4.24;\n\nimport { Ownable } from \"zeppelin-solidity/contracts/ownership/Ownable.sol\";\nimport { SafeMath } from \"zeppelin-solidity/contracts/math/SafeMath.sol\";\nimport { MembersBookLib } from \"./MembersBookLib.sol\";\n\n\n/**\n * @title Token interface compatible with Pragmatic Hodlings\n * @author Wojciech Harzowski (https://github.com/harzo)\n * @author Dominik Kroliczek (https://github.com/kruligh)\n */\ncontract TransferableToken {\n    function transfer(address to, uint256 amount) public;\n    function balanceOf(address who) public view returns (uint256);\n}\n\n\n/**\n * @title Proportionally distribute contract's tokens to each registered hodler\n * @dev Proportion is calculated based on join date timestamp\n * @dev Group of hodlers and settlements are managed by contract owner\n * @author Wojciech Harzowski (https://github.com/harzo)\n * @author Dominik Kroliczek (https://github.com/kruligh)\n */\ncontract PragmaticHodlings is Ownable {\n\n    using SafeMath for uint256;\n    using MembersBookLib for MembersBookLib.MembersBook;\n\n    MembersBookLib.MembersBook private hodlers;\n\n    /**\n     * @dev Stores addresses added to book\n     */\n    modifier onlyValidAddress(address account) {\n        require(account != address(0));\n        _;\n    }\n\n    modifier onlyHodlersExist {\n        require(hodlers.entries.length != 0);\n        _;\n    }\n\n    modifier onlyExisting(address account) {\n        require(hodlers.contains(account));\n        _;\n    }\n\n    modifier onlyNotExisting(address account) {\n        require(!hodlers.contains(account));\n        _;\n    }\n\n    modifier onlySufficientAmount(TransferableToken token) {\n        require(token.balanceOf(this) > 0);\n        _;\n    }\n\n    modifier onlyPast(uint64 timestamp) {\n        // solhint-disable not-rely-on-time\n        // solium-disable-next-line security/no-block-members\n        require(now > timestamp);\n        _;\n    }\n\n    /**\n    * @dev New hodler has been added to book\n    * @param account address Hodler's address\n    * @param joinDate uint64 Hodler's joining timestamp\n    */\n    event HodlerAdded(address account, uint64 joinDate);\n\n    /**\n     * @dev Existing hodler has been removed\n     * @param account address Removed hodler address\n     */\n    event HodlerRemoved(address account);\n\n    /**\n     * @dev Token is settled on hodlers addresses\n     * @param token address The token address\n     * @param amount uint256 Settled amount\n     */\n    event TokenSettled(address token, uint256 amount);\n\n    /**\n     * @dev Adds new hodler to book\n     * @param account address Hodler's address\n     * @param joinDate uint64 Hodler's joining timestamp\n     */\n    function addHodler(address account, uint64 joinDate)\n        public\n        onlyOwner\n        onlyValidAddress(account)\n        onlyNotExisting(account)\n        onlyPast(joinDate)\n    {\n        hodlers.add(account, joinDate);\n        emit HodlerAdded(account, joinDate);\n    }\n\n    /**\n     * @dev Removes existing hodler from book\n     * @param account address Hodler's address whose should be removed\n     */\n    function removeHodler(address account)\n        public\n        onlyOwner\n        onlyValidAddress(account)\n        onlyExisting(account)\n    {\n        hodlers.remove(account);\n        emit HodlerRemoved(account);\n    }\n\n    /**\n     * @dev Settles given token on hodlers addresses\n     * @param token BasicToken The token to settle\n     */\n    function settleToken(TransferableToken token)\n        public\n        onlyOwner\n        onlyHodlersExist\n        onlySufficientAmount(token)\n    {\n        uint256 tokenAmount = token.balanceOf(this);\n\n        uint256[] memory tokenShares = calculateShares(tokenAmount);\n\n        for (uint i = 0; i < hodlers.entries.length; i++) {\n            token.transfer(hodlers.entries[i].account, tokenShares[i]);\n        }\n\n        emit TokenSettled(token, tokenAmount);\n    }\n\n    /**\n     * @dev Calculates proportional share in given amount\n     * @param amount uint256 Amount to share between hodlers\n     * @return tokenShares uint256[] Calculated shares\n     */\n    function calculateShares(uint256 amount)\n        public\n        view\n        returns (uint256[])\n    {\n        uint256[] memory temp = new uint256[](hodlers.entries.length);\n\n        uint256 sum = 0;\n        for (uint256 i = 0; i < temp.length; i++) {\n            // solium-disable-next-line security/no-block-members\n            temp[i] = now.sub(hodlers.entries[i].joinDate);\n            sum = sum.add(temp[i]);\n        }\n\n        uint256 sharesSum = 0;\n        for (i = 0; i < temp.length; i++) {\n            temp[i] = amount.mul(temp[i]).div(sum);\n            sharesSum += temp[i];\n        }\n\n        if (amount > sharesSum) { // undivided rest of token\n            temp[0] = temp[0].add(amount.sub(sharesSum));\n        }\n\n        return temp;\n    }\n\n    /**\n     * @dev Returns hodlers addresses with joining timestamps\n     * @return address[] Addresses of hodlers\n     * @return uint64[] joining timestamps. Related by index with addresses\n     */\n    function getHodlers()\n        public\n        view\n        returns (address[], uint64[])\n    {\n        address[] memory hodlersAddresses = new address[](hodlers.entries.length);\n        uint64[] memory hodlersTimestamps = new uint64[](hodlers.entries.length);\n\n        for (uint256 i = 0; i < hodlers.entries.length; i++) {\n            hodlersAddresses[i] = hodlers.entries[i].account;\n            hodlersTimestamps[i] = hodlers.entries[i].joinDate;\n        }\n\n        return (hodlersAddresses, hodlersTimestamps);\n    }\n\n    /**\n     * @param account address Hodler address\n     * @return bool whether account is registered as holder\n     */\n    function isHodler(address account)\n        public\n        view\n        returns (bool)\n    {\n        return hodlers.contains(account);\n    }\n}",
  "sourcePath": "/home/kruligh/src/pragmatic-hodlings/contracts/PragmaticHodlings.sol",
  "compiler": {
    "name": "solc",
    "version": "0.4.24+commit.e67f0147.Emscripten.clang"
  },
  "schemaVersion": "2.0.1",
  "updatedAt": "2018-08-30T20:21:07.227Z"
}