{
  "contractName": "PragmaticHodlings",
  "abi": [
    {
      "constant": false,
      "inputs": [
        {
          "name": "account",
          "type": "address"
        }
      ],
      "name": "removeHodler",
      "outputs": [],
      "payable": false,
      "stateMutability": "nonpayable",
      "type": "function"
    },
    {
      "constant": true,
      "inputs": [
        {
          "name": "amount",
          "type": "uint256"
        }
      ],
      "name": "calculateShares",
      "outputs": [
        {
          "name": "",
          "type": "uint256[]"
        }
      ],
      "payable": false,
      "stateMutability": "view",
      "type": "function"
    },
    {
      "constant": true,
      "inputs": [
        {
          "name": "account",
          "type": "address"
        }
      ],
      "name": "isHodler",
      "outputs": [
        {
          "name": "",
          "type": "bool"
        }
      ],
      "payable": false,
      "stateMutability": "view",
      "type": "function"
    },
    {
      "constant": false,
      "inputs": [
        {
          "name": "account",
          "type": "address"
        },
        {
          "name": "joined",
          "type": "uint32"
        }
      ],
      "name": "addHodler",
      "outputs": [],
      "payable": false,
      "stateMutability": "nonpayable",
      "type": "function"
    },
    {
      "constant": true,
      "inputs": [],
      "name": "owner",
      "outputs": [
        {
          "name": "",
          "type": "address"
        }
      ],
      "payable": false,
      "stateMutability": "view",
      "type": "function"
    },
    {
      "constant": false,
      "inputs": [
        {
          "name": "token",
          "type": "address"
        }
      ],
      "name": "settleToken",
      "outputs": [],
      "payable": false,
      "stateMutability": "nonpayable",
      "type": "function"
    },
    {
      "constant": true,
      "inputs": [],
      "name": "getHodlers",
      "outputs": [
        {
          "name": "",
          "type": "address[]"
        },
        {
          "name": "",
          "type": "uint32[]"
        }
      ],
      "payable": false,
      "stateMutability": "view",
      "type": "function"
    },
    {
      "constant": false,
      "inputs": [
        {
          "name": "newOwner",
          "type": "address"
        }
      ],
      "name": "transferOwnership",
      "outputs": [],
      "payable": false,
      "stateMutability": "nonpayable",
      "type": "function"
    },
    {
      "anonymous": false,
      "inputs": [
        {
          "indexed": false,
          "name": "account",
          "type": "address"
        },
        {
          "indexed": false,
          "name": "joined",
          "type": "uint32"
        }
      ],
      "name": "HodlerAdded",
      "type": "event"
    },
    {
      "anonymous": false,
      "inputs": [
        {
          "indexed": false,
          "name": "account",
          "type": "address"
        }
      ],
      "name": "HodlerRemoved",
      "type": "event"
    },
    {
      "anonymous": false,
      "inputs": [
        {
          "indexed": false,
          "name": "token",
          "type": "address"
        },
        {
          "indexed": false,
          "name": "amount",
          "type": "uint256"
        }
      ],
      "name": "TokenSettled",
      "type": "event"
    },
    {
      "anonymous": false,
      "inputs": [
        {
          "indexed": true,
          "name": "previousOwner",
          "type": "address"
        },
        {
          "indexed": true,
          "name": "newOwner",
          "type": "address"
        }
      ],
      "name": "OwnershipTransferred",
      "type": "event"
    }
  ],
  "bytecode": "0x6060604052336000806101000a81548173ffffffffffffffffffffffffffffffffffffffff021916908373ffffffffffffffffffffffffffffffffffffffff16021790555061139f806100536000396000f30060606040526004361061008e576000357c0100000000000000000000000000000000000000000000000000000000900463ffffffff16806316511a67146100935780633ec16194146100cc57806352f37c40146101445780638adc94ce146101955780638da5cb5b146101dd578063bee4b63a14610232578063cce356b51461026b578063f2fde38b1461031d575b600080fd5b341561009e57600080fd5b6100ca600480803573ffffffffffffffffffffffffffffffffffffffff16906020019091905050610356565b005b34156100d757600080fd5b6100ed600480803590602001909190505061048b565b6040518080602001828103825283818151815260200191508051906020019060200280838360005b83811015610130578082015181840152602081019050610115565b505050509050019250505060405180910390f35b341561014f57600080fd5b61017b600480803573ffffffffffffffffffffffffffffffffffffffff169060200190919050506105f5565b604051808215151515815260200191505060405180910390f35b34156101a057600080fd5b6101db600480803573ffffffffffffffffffffffffffffffffffffffff1690602001909190803563ffffffff16906020019091905050610612565b005b34156101e857600080fd5b6101f0610775565b604051808273ffffffffffffffffffffffffffffffffffffffff1673ffffffffffffffffffffffffffffffffffffffff16815260200191505060405180910390f35b341561023d57600080fd5b610269600480803573ffffffffffffffffffffffffffffffffffffffff1690602001909190505061079a565b005b341561027657600080fd5b61027e610b52565b604051808060200180602001838103835285818151815260200191508051906020019060200280838360005b838110156102c55780820151818401526020810190506102aa565b50505050905001838103825284818151815260200191508051906020019060200280838360005b838110156103075780820151818401526020810190506102ec565b5050505090500194505050505060405180910390f35b341561032857600080fd5b610354600480803573ffffffffffffffffffffffffffffffffffffffff16906020019091905050610cdb565b005b6000809054906101000a900473ffffffffffffffffffffffffffffffffffffffff1673ffffffffffffffffffffffffffffffffffffffff163373ffffffffffffffffffffffffffffffffffffffff161415156103b157600080fd5b80600073ffffffffffffffffffffffffffffffffffffffff168173ffffffffffffffffffffffffffffffffffffffff16141515156103ee57600080fd5b81610403816001610e3090919063ffffffff16565b151561040e57600080fd5b610422836001610edc90919063ffffffff16565b507f683f0752ec47a36e05360cedb1361d65144ee41b81edf0a9981190d21941ff8b83604051808273ffffffffffffffffffffffffffffffffffffffff1673ffffffffffffffffffffffffffffffffffffffff16815260200191505060405180910390a1505050565b610493611282565b61049b611282565b6000806001600001805490506040518059106104b45750595b9080825280602002602001820160405250925060009150600090505b8251811015610577576105226001600001828154811015156104ee57fe5b906000526020600020900160000160149054906101000a900463ffffffff1663ffffffff164261101e90919063ffffffff16565b838281518110151561053057fe5b9060200190602002018181525050610568838281518110151561054f57fe5b906020019060200201518361103790919063ffffffff16565b915080806001019150506104d0565b600090505b82518110156105ea576105c1826105b3858481518110151561059a57fe5b906020019060200201518861105590919063ffffffff16565b61109090919063ffffffff16565b83828151811015156105cf57fe5b9060200190602002018181525050808060010191505061057c565b829350505050919050565b600061060b826001610e3090919063ffffffff16565b9050919050565b6000809054906101000a900473ffffffffffffffffffffffffffffffffffffffff1673ffffffffffffffffffffffffffffffffffffffff163373ffffffffffffffffffffffffffffffffffffffff1614151561066d57600080fd5b81600073ffffffffffffffffffffffffffffffffffffffff168173ffffffffffffffffffffffffffffffffffffffff16141515156106aa57600080fd5b826106bf816001610e3090919063ffffffff16565b1515156106cb57600080fd5b828063ffffffff16421115156106e057600080fd5b6106f6858560016110ab9092919063ffffffff16565b507f67d216680f919269fc063f74e66bfdd4e3bf3567908c55bd9d99998f8ee6fa5f8585604051808373ffffffffffffffffffffffffffffffffffffffff1673ffffffffffffffffffffffffffffffffffffffff1681526020018263ffffffff1663ffffffff1681526020019250505060405180910390a15050505050565b6000809054906101000a900473ffffffffffffffffffffffffffffffffffffffff1681565b60006107a4611282565b60008060009054906101000a900473ffffffffffffffffffffffffffffffffffffffff1673ffffffffffffffffffffffffffffffffffffffff163373ffffffffffffffffffffffffffffffffffffffff1614151561080157600080fd5b60006001600001805490501415151561081957600080fd5b8360008173ffffffffffffffffffffffffffffffffffffffff166370a08231306000604051602001526040518263ffffffff167c0100000000000000000000000000000000000000000000000000000000028152600401808273ffffffffffffffffffffffffffffffffffffffff1673ffffffffffffffffffffffffffffffffffffffff168152602001915050602060405180830381600087803b15156108bf57600080fd5b6102c65a03f115156108d057600080fd5b505050604051805190501115156108e657600080fd5b8473ffffffffffffffffffffffffffffffffffffffff166370a08231306000604051602001526040518263ffffffff167c0100000000000000000000000000000000000000000000000000000000028152600401808273ffffffffffffffffffffffffffffffffffffffff1673ffffffffffffffffffffffffffffffffffffffff168152602001915050602060405180830381600087803b151561098957600080fd5b6102c65a03f1151561099a57600080fd5b5050506040518051905093506109af8461048b565b9250600091505b600160000180549050821015610ae0578473ffffffffffffffffffffffffffffffffffffffff1663a9059cbb6001600001848154811015156109f457fe5b906000526020600020900160000160009054906101000a900473ffffffffffffffffffffffffffffffffffffffff168585815181101515610a3157fe5b906020019060200201516040518363ffffffff167c0100000000000000000000000000000000000000000000000000000000028152600401808373ffffffffffffffffffffffffffffffffffffffff1673ffffffffffffffffffffffffffffffffffffffff16815260200182815260200192505050600060405180830381600087803b1515610abf57600080fd5b6102c65a03f11515610ad057600080fd5b50505081806001019250506109b6565b7f20df4650e147e41df756057eb439b3c26568234120d5cdf743130dfea03377518585604051808373ffffffffffffffffffffffffffffffffffffffff1673ffffffffffffffffffffffffffffffffffffffff1681526020018281526020019250505060405180910390a15050505050565b610b5a611296565b610b626112aa565b610b6a611296565b610b726112aa565b6000600160000180549050604051805910610b8a5750595b90808252806020026020018201604052509250600160000180549050604051805910610bb35750595b90808252806020026020018201604052509150600090505b600160000180549050811015610cce57600160000181815481101515610bed57fe5b906000526020600020900160000160009054906101000a900473ffffffffffffffffffffffffffffffffffffffff168382815181101515610c2a57fe5b9060200190602002019073ffffffffffffffffffffffffffffffffffffffff16908173ffffffffffffffffffffffffffffffffffffffff1681525050600160000181815481101515610c7857fe5b906000526020600020900160000160149054906101000a900463ffffffff168282815181101515610ca557fe5b9060200190602002019063ffffffff16908163ffffffff16815250508080600101915050610bcb565b8282945094505050509091565b6000809054906101000a900473ffffffffffffffffffffffffffffffffffffffff1673ffffffffffffffffffffffffffffffffffffffff163373ffffffffffffffffffffffffffffffffffffffff16141515610d3657600080fd5b600073ffffffffffffffffffffffffffffffffffffffff168173ffffffffffffffffffffffffffffffffffffffff1614151515610d7257600080fd5b8073ffffffffffffffffffffffffffffffffffffffff166000809054906101000a900473ffffffffffffffffffffffffffffffffffffffff1673ffffffffffffffffffffffffffffffffffffffff167f8be0079c531659141344cd1fd0a4f28419497f9722a3daafe3b4186f6b6457e060405160405180910390a3806000806101000a81548173ffffffffffffffffffffffffffffffffffffffff021916908373ffffffffffffffffffffffffffffffffffffffff16021790555050565b600080600090505b8360000180549050811015610ed0578273ffffffffffffffffffffffffffffffffffffffff168460000182815481101515610e6f57fe5b906000526020600020900160000160009054906101000a900473ffffffffffffffffffffffffffffffffffffffff1673ffffffffffffffffffffffffffffffffffffffff161415610ec35760019150610ed5565b8080600101915050610e38565b600091505b5092915050565b600080610ee98484610e30565b1515610ef85760009150611017565b610f0284846111d1565b90506001846000018054905003811015610ffa57836000016001856000018054905003815481101515610f3157fe5b90600052602060002090018460000182815481101515610f4d57fe5b90600052602060002090016000820160009054906101000a900473ffffffffffffffffffffffffffffffffffffffff168160000160006101000a81548173ffffffffffffffffffffffffffffffffffffffff021916908373ffffffffffffffffffffffffffffffffffffffff1602179055506000820160149054906101000a900463ffffffff168160000160146101000a81548163ffffffff021916908363ffffffff1602179055509050505b8360000180548091906001900361101191906112be565b50600191505b5092915050565b600082821115151561102c57fe5b818303905092915050565b600080828401905083811015151561104b57fe5b8091505092915050565b600080600084141561106a5760009150611089565b828402905082848281151561107b57fe5b0414151561108557fe5b8091505b5092915050565b600080828481151561109e57fe5b0490508091505092915050565b60008073ffffffffffffffffffffffffffffffffffffffff168373ffffffffffffffffffffffffffffffffffffffff1614806110ed57506110ec8484610e30565b5b156110fb57600090506111ca565b83600001805480600101828161111191906112ea565b9160005260206000209001600060408051908101604052808773ffffffffffffffffffffffffffffffffffffffff1681526020018663ffffffff16815250909190915060008201518160000160006101000a81548173ffffffffffffffffffffffffffffffffffffffff021916908373ffffffffffffffffffffffffffffffffffffffff16021790555060208201518160000160146101000a81548163ffffffff021916908363ffffffff160217905550505050600190505b9392505050565b600080600090505b8360000180549050811015611270578273ffffffffffffffffffffffffffffffffffffffff16846000018281548110151561121057fe5b906000526020600020900160000160009054906101000a900473ffffffffffffffffffffffffffffffffffffffff1673ffffffffffffffffffffffffffffffffffffffff1614156112635780915061127b565b80806001019150506111d9565b6000151561127a57fe5b5b5092915050565b602060405190810160405280600081525090565b602060405190810160405280600081525090565b602060405190810160405280600081525090565b8154818355818115116112e5578183600052602060002091820191016112e49190611316565b5b505050565b815481835581811511611311578183600052602060002091820191016113109190611316565b5b505050565b61137091905b8082111561136c57600080820160006101000a81549073ffffffffffffffffffffffffffffffffffffffff02191690556000820160146101000a81549063ffffffff02191690555060010161131c565b5090565b905600a165627a7a72305820f303e0c36bbdaddb5f4d7c7d168eb93aa73488eba23dcaec23d23ad5663f843e0029",
  "source": "pragma solidity 0.4.19;\n\nimport { Ownable } from \"zeppelin-solidity/contracts/ownership/Ownable.sol\";\nimport { SafeMath } from \"zeppelin-solidity/contracts/math/SafeMath.sol\";\nimport { MembersBookLib } from \"./MembersBookLib.sol\";\n\n\n/**\n * @title Token interface compatible with Pragmatic Hodlings\n * @author Wojciech Harzowski (https://github.com/harzo)\n * @author Dominik Kroliczek (https://github.com/kruligh)\n */\ncontract TransferableToken {\n    function transfer(address to, uint256 amount) public;\n    function balanceOf(address who) public view returns (uint256);\n}\n\n\n/**\n * @title Proportionally distribute contract's tokens to each registered hodler\n * @dev Proportion is calculated based on joined timestamp\n * @dev Group of hodlers and settlements are managed by contract owner\n * @author Wojciech Harzowski (https://github.com/harzo)\n * @author Dominik Kroliczek (https://github.com/kruligh)\n */\ncontract PragmaticHodlings is Ownable {\n\n    using SafeMath for uint256;\n    using MembersBookLib for MembersBookLib.MembersBook;\n\n    MembersBookLib.MembersBook private hodlers;\n\n    /**\n     * @dev Stores addresses added to book\n     */\n    modifier onlyValidAddress(address account) {\n        require(account != address(0));\n        _;\n    }\n\n    modifier onlyHodlersExist {\n        require(hodlers.entries.length != 0);\n        _;\n    }\n\n    modifier onlyExisting(address account) {\n        require(hodlers.contains(account));\n        _;\n    }\n\n    modifier onlyNotExisting(address account) {\n        require(!hodlers.contains(account));\n        _;\n    }\n\n    modifier onlySufficientAmount(TransferableToken token) {\n        require(token.balanceOf(this) > 0);\n        _;\n    }\n\n    modifier onlyPast(uint32 timestamp) {\n        // solhint-disable-next-line not-rely-on-time\n        require(now > timestamp);\n        _;\n    }\n\n    /**\n    * @dev New hodler has been added to book\n    * @param account address Hodler's address\n    * @param joined uint32 Hodler's joining timestamp\n    */\n    event HodlerAdded(address account, uint32 joined);\n\n    /**\n     * @dev Existing hodler has been removed\n     * @param account address Removed hodler address\n     */\n    event HodlerRemoved(address account);\n\n    /**\n     * @dev Token is settled on hodlers addresses\n     * @param token address The token address\n     * @param amount uint256 Settled amount\n     */\n    event TokenSettled(address token, uint256 amount);\n\n    /**\n     * @dev Adds new hodler to book\n     * @param account address Hodler's address\n     * @param joined uint32 Hodler's joining timestamp\n     */\n    function addHodler(address account, uint32 joined)\n        public\n        onlyOwner\n        onlyValidAddress(account)\n        onlyNotExisting(account)\n        onlyPast(joined)\n    {\n        hodlers.add(account, joined);\n        HodlerAdded(account, joined);\n    }\n\n    /**\n     * @dev Removes existing hodler from book\n     * @param account address Hodler's address whose should be removed\n     */\n    function removeHodler(address account)\n        public\n        onlyOwner\n        onlyValidAddress(account)\n        onlyExisting(account)\n    {\n        hodlers.remove(account);\n        HodlerRemoved(account);\n    }\n\n    /**\n     * @dev Settles given token on hodlers addresses\n     * @param token BasicToken The token to settle\n     */\n    function settleToken(TransferableToken token)\n        public\n        onlyOwner\n        onlyHodlersExist\n        onlySufficientAmount(token)\n    {\n        uint256 tokenAmount = token.balanceOf(this);\n\n        uint256[] memory tokenShares = calculateShares(tokenAmount);\n\n        for (uint i = 0; i < hodlers.entries.length; i++) {\n            token.transfer(hodlers.entries[i].account, tokenShares[i]);\n        }\n\n        TokenSettled(token, tokenAmount);\n    }\n\n    /**\n     * @dev Calculates proportional share in given amount\n     * @param amount uint256 Amount to share between hodlers\n     * @return tokenShares uint256[] Calculated shares\n     */\n    function calculateShares(uint256 amount)\n        public\n        view\n        returns (uint256[])\n    {\n        uint256[] memory temp = new uint256[](hodlers.entries.length);\n\n        uint256 sum = 0;\n        for (uint256 i = 0; i < temp.length; i++) {\n            // solhint-disable-next-line not-rely-on-time\n            temp[i] = now.sub(hodlers.entries[i].joined);\n            sum = sum.add(temp[i]);\n        }\n\n        for (i = 0; i < temp.length; i++) {\n            temp[i] = amount.mul(temp[i]).div(sum);\n        }\n\n        return temp;\n    }\n\n    /**\n     * @dev Returns hodlers addresses with joining timestamps\n     * @return address[] Addresses of hodlers\n     * @return uint32[] joining timestamps. Related by index with addresses\n     */\n    function getHodlers()\n        public\n        view\n        returns (address[], uint32[])\n    {\n        address[] memory hodlersAddresses = new address[](hodlers.entries.length);\n        uint32[] memory hodlersTimestamps = new uint32[](hodlers.entries.length);\n\n        for (uint256 i = 0; i < hodlers.entries.length; i++) {\n            hodlersAddresses[i] = hodlers.entries[i].account;\n            hodlersTimestamps[i] = hodlers.entries[i].joined;\n        }\n\n        return (hodlersAddresses, hodlersTimestamps);\n    }\n\n    /**\n     * @param account address Hodler address\n     * @return bool whether account is registered as holder\n     */\n    function isHodler(address account)\n        public\n        view\n        returns (bool)\n    {\n        return hodlers.contains(account);\n    }\n}",
  "sourcePath": "/home/harzo/Projects/pragmatic-hodlings/contracts/PragmaticHodlings.sol",
  "compiler": {
    "name": "solc",
    "version": "0.4.19+commit.c4cbbb05.Emscripten.clang"
  },
  "schemaVersion": "1.0.1",
  "updatedAt": "2018-03-15T09:37:18.344Z"
}