{
  "contractName": "PragmaticHodlings",
  "abi": [
    {
      "constant": false,
      "inputs": [
        {
          "name": "account",
          "type": "address"
        }
      ],
      "name": "removeHodler",
      "outputs": [],
      "payable": false,
      "stateMutability": "nonpayable",
      "type": "function"
    },
    {
      "constant": true,
      "inputs": [
        {
          "name": "amount",
          "type": "uint256"
        }
      ],
      "name": "calculateShares",
      "outputs": [
        {
          "name": "",
          "type": "uint256[]"
        }
      ],
      "payable": false,
      "stateMutability": "view",
      "type": "function"
    },
    {
      "constant": true,
      "inputs": [
        {
          "name": "account",
          "type": "address"
        }
      ],
      "name": "isHodler",
      "outputs": [
        {
          "name": "",
          "type": "bool"
        }
      ],
      "payable": false,
      "stateMutability": "view",
      "type": "function"
    },
    {
      "constant": false,
      "inputs": [
        {
          "name": "account",
          "type": "address"
        },
        {
          "name": "joinDate",
          "type": "uint64"
        }
      ],
      "name": "addHodler",
      "outputs": [],
      "payable": false,
      "stateMutability": "nonpayable",
      "type": "function"
    },
    {
      "constant": true,
      "inputs": [],
      "name": "owner",
      "outputs": [
        {
          "name": "",
          "type": "address"
        }
      ],
      "payable": false,
      "stateMutability": "view",
      "type": "function"
    },
    {
      "constant": false,
      "inputs": [
        {
          "name": "token",
          "type": "address"
        }
      ],
      "name": "settleToken",
      "outputs": [],
      "payable": false,
      "stateMutability": "nonpayable",
      "type": "function"
    },
    {
      "constant": true,
      "inputs": [],
      "name": "getHodlers",
      "outputs": [
        {
          "name": "",
          "type": "address[]"
        },
        {
          "name": "",
          "type": "uint64[]"
        }
      ],
      "payable": false,
      "stateMutability": "view",
      "type": "function"
    },
    {
      "constant": false,
      "inputs": [
        {
          "name": "newOwner",
          "type": "address"
        }
      ],
      "name": "transferOwnership",
      "outputs": [],
      "payable": false,
      "stateMutability": "nonpayable",
      "type": "function"
    },
    {
      "anonymous": false,
      "inputs": [
        {
          "indexed": false,
          "name": "account",
          "type": "address"
        },
        {
          "indexed": false,
          "name": "joinDate",
          "type": "uint64"
        }
      ],
      "name": "HodlerAdded",
      "type": "event"
    },
    {
      "anonymous": false,
      "inputs": [
        {
          "indexed": false,
          "name": "account",
          "type": "address"
        }
      ],
      "name": "HodlerRemoved",
      "type": "event"
    },
    {
      "anonymous": false,
      "inputs": [
        {
          "indexed": false,
          "name": "token",
          "type": "address"
        },
        {
          "indexed": false,
          "name": "amount",
          "type": "uint256"
        }
      ],
      "name": "TokenSettled",
      "type": "event"
    },
    {
      "anonymous": false,
      "inputs": [
        {
          "indexed": true,
          "name": "previousOwner",
          "type": "address"
        },
        {
          "indexed": true,
          "name": "newOwner",
          "type": "address"
        }
      ],
      "name": "OwnershipTransferred",
      "type": "event"
    }
  ],
  "bytecode": "0x6060604052336000806101000a81548173ffffffffffffffffffffffffffffffffffffffff021916908373ffffffffffffffffffffffffffffffffffffffff160217905550611465806100536000396000f30060606040526004361061008e576000357c0100000000000000000000000000000000000000000000000000000000900463ffffffff16806316511a67146100935780633ec16194146100cc57806352f37c4014610144578063716210d8146101955780638da5cb5b146101e1578063bee4b63a14610236578063cce356b51461026f578063f2fde38b14610321575b600080fd5b341561009e57600080fd5b6100ca600480803573ffffffffffffffffffffffffffffffffffffffff1690602001909190505061035a565b005b34156100d757600080fd5b6100ed600480803590602001909190505061048f565b6040518080602001828103825283818151815260200191508051906020019060200280838360005b83811015610130578082015181840152602081019050610115565b505050509050019250505060405180910390f35b341561014f57600080fd5b61017b600480803573ffffffffffffffffffffffffffffffffffffffff16906020019091905050610687565b604051808215151515815260200191505060405180910390f35b34156101a057600080fd5b6101df600480803573ffffffffffffffffffffffffffffffffffffffff1690602001909190803567ffffffffffffffff169060200190919050506106a4565b005b34156101ec57600080fd5b6101f4610813565b604051808273ffffffffffffffffffffffffffffffffffffffff1673ffffffffffffffffffffffffffffffffffffffff16815260200191505060405180910390f35b341561024157600080fd5b61026d600480803573ffffffffffffffffffffffffffffffffffffffff16906020019091905050610838565b005b341561027a57600080fd5b610282610bf0565b604051808060200180602001838103835285818151815260200191508051906020019060200280838360005b838110156102c95780820151818401526020810190506102ae565b50505050905001838103825284818151815260200191508051906020019060200280838360005b8381101561030b5780820151818401526020810190506102f0565b5050505090500194505050505060405180910390f35b341561032c57600080fd5b610358600480803573ffffffffffffffffffffffffffffffffffffffff16906020019091905050610d85565b005b6000809054906101000a900473ffffffffffffffffffffffffffffffffffffffff1673ffffffffffffffffffffffffffffffffffffffff163373ffffffffffffffffffffffffffffffffffffffff161415156103b557600080fd5b80600073ffffffffffffffffffffffffffffffffffffffff168173ffffffffffffffffffffffffffffffffffffffff16141515156103f257600080fd5b81610407816001610eda90919063ffffffff16565b151561041257600080fd5b610426836001610f8690919063ffffffff16565b507f683f0752ec47a36e05360cedb1361d65144ee41b81edf0a9981190d21941ff8b83604051808273ffffffffffffffffffffffffffffffffffffffff1673ffffffffffffffffffffffffffffffffffffffff16815260200191505060405180910390a1505050565b610497611344565b61049f611344565b60008060006001600001805490506040518059106104ba5750595b9080825280602002602001820160405250935060009250600091505b8351821015610585576105306001600001838154811015156104f457fe5b906000526020600020900160000160149054906101000a900467ffffffffffffffff1667ffffffffffffffff16426110d490919063ffffffff16565b848381518110151561053e57fe5b9060200190602002018181525050610576848381518110151561055d57fe5b90602001906020020151846110ed90919063ffffffff16565b925081806001019250506104d6565b60009050600091505b8351821015610618576105d3836105c586858151811015156105ac57fe5b906020019060200201518961110b90919063ffffffff16565b61114690919063ffffffff16565b84838151811015156105e157fe5b906020019060200201818152505083828151811015156105fd57fe5b9060200190602002015181019050818060010192505061058e565b8086111561067b5761065d61063682886110d490919063ffffffff16565b85600081518110151561064557fe5b906020019060200201516110ed90919063ffffffff16565b84600081518110151561066c57fe5b90602001906020020181815250505b83945050505050919050565b600061069d826001610eda90919063ffffffff16565b9050919050565b6000809054906101000a900473ffffffffffffffffffffffffffffffffffffffff1673ffffffffffffffffffffffffffffffffffffffff163373ffffffffffffffffffffffffffffffffffffffff161415156106ff57600080fd5b81600073ffffffffffffffffffffffffffffffffffffffff168173ffffffffffffffffffffffffffffffffffffffff161415151561073c57600080fd5b82610751816001610eda90919063ffffffff16565b15151561075d57600080fd5b828067ffffffffffffffff164211151561077657600080fd5b61078c858560016111619092919063ffffffff16565b507f4bda7a30e936a6a7d88023f6c88beb48ddfe327cd81bca8d16c67cbf230ba6738585604051808373ffffffffffffffffffffffffffffffffffffffff1673ffffffffffffffffffffffffffffffffffffffff1681526020018267ffffffffffffffff1667ffffffffffffffff1681526020019250505060405180910390a15050505050565b6000809054906101000a900473ffffffffffffffffffffffffffffffffffffffff1681565b6000610842611344565b60008060009054906101000a900473ffffffffffffffffffffffffffffffffffffffff1673ffffffffffffffffffffffffffffffffffffffff163373ffffffffffffffffffffffffffffffffffffffff1614151561089f57600080fd5b6000600160000180549050141515156108b757600080fd5b8360008173ffffffffffffffffffffffffffffffffffffffff166370a08231306000604051602001526040518263ffffffff167c0100000000000000000000000000000000000000000000000000000000028152600401808273ffffffffffffffffffffffffffffffffffffffff1673ffffffffffffffffffffffffffffffffffffffff168152602001915050602060405180830381600087803b151561095d57600080fd5b6102c65a03f1151561096e57600080fd5b5050506040518051905011151561098457600080fd5b8473ffffffffffffffffffffffffffffffffffffffff166370a08231306000604051602001526040518263ffffffff167c0100000000000000000000000000000000000000000000000000000000028152600401808273ffffffffffffffffffffffffffffffffffffffff1673ffffffffffffffffffffffffffffffffffffffff168152602001915050602060405180830381600087803b1515610a2757600080fd5b6102c65a03f11515610a3857600080fd5b505050604051805190509350610a4d8461048f565b9250600091505b600160000180549050821015610b7e578473ffffffffffffffffffffffffffffffffffffffff1663a9059cbb600160000184815481101515610a9257fe5b906000526020600020900160000160009054906101000a900473ffffffffffffffffffffffffffffffffffffffff168585815181101515610acf57fe5b906020019060200201516040518363ffffffff167c0100000000000000000000000000000000000000000000000000000000028152600401808373ffffffffffffffffffffffffffffffffffffffff1673ffffffffffffffffffffffffffffffffffffffff16815260200182815260200192505050600060405180830381600087803b1515610b5d57600080fd5b6102c65a03f11515610b6e57600080fd5b5050508180600101925050610a54565b7f20df4650e147e41df756057eb439b3c26568234120d5cdf743130dfea03377518585604051808373ffffffffffffffffffffffffffffffffffffffff1673ffffffffffffffffffffffffffffffffffffffff1681526020018281526020019250505060405180910390a15050505050565b610bf8611358565b610c0061136c565b610c08611358565b610c1061136c565b6000600160000180549050604051805910610c285750595b90808252806020026020018201604052509250600160000180549050604051805910610c515750595b90808252806020026020018201604052509150600090505b600160000180549050811015610d7857600160000181815481101515610c8b57fe5b906000526020600020900160000160009054906101000a900473ffffffffffffffffffffffffffffffffffffffff168382815181101515610cc857fe5b9060200190602002019073ffffffffffffffffffffffffffffffffffffffff16908173ffffffffffffffffffffffffffffffffffffffff1681525050600160000181815481101515610d1657fe5b906000526020600020900160000160149054906101000a900467ffffffffffffffff168282815181101515610d4757fe5b9060200190602002019067ffffffffffffffff16908167ffffffffffffffff16815250508080600101915050610c69565b8282945094505050509091565b6000809054906101000a900473ffffffffffffffffffffffffffffffffffffffff1673ffffffffffffffffffffffffffffffffffffffff163373ffffffffffffffffffffffffffffffffffffffff16141515610de057600080fd5b600073ffffffffffffffffffffffffffffffffffffffff168173ffffffffffffffffffffffffffffffffffffffff1614151515610e1c57600080fd5b8073ffffffffffffffffffffffffffffffffffffffff166000809054906101000a900473ffffffffffffffffffffffffffffffffffffffff1673ffffffffffffffffffffffffffffffffffffffff167f8be0079c531659141344cd1fd0a4f28419497f9722a3daafe3b4186f6b6457e060405160405180910390a3806000806101000a81548173ffffffffffffffffffffffffffffffffffffffff021916908373ffffffffffffffffffffffffffffffffffffffff16021790555050565b600080600090505b8360000180549050811015610f7a578273ffffffffffffffffffffffffffffffffffffffff168460000182815481101515610f1957fe5b906000526020600020900160000160009054906101000a900473ffffffffffffffffffffffffffffffffffffffff1673ffffffffffffffffffffffffffffffffffffffff161415610f6d5760019150610f7f565b8080600101915050610ee2565b600091505b5092915050565b600080610f938484610eda565b1515610fa257600091506110cd565b610fac8484611293565b905060018460000180549050038110156110b057836000016001856000018054905003815481101515610fdb57fe5b90600052602060002090018460000182815481101515610ff757fe5b90600052602060002090016000820160009054906101000a900473ffffffffffffffffffffffffffffffffffffffff168160000160006101000a81548173ffffffffffffffffffffffffffffffffffffffff021916908373ffffffffffffffffffffffffffffffffffffffff1602179055506000820160149054906101000a900467ffffffffffffffff168160000160146101000a81548167ffffffffffffffff021916908367ffffffffffffffff1602179055509050505b836000018054809190600190036110c79190611380565b50600191505b5092915050565b60008282111515156110e257fe5b818303905092915050565b600080828401905083811015151561110157fe5b8091505092915050565b6000806000841415611120576000915061113f565b828402905082848281151561113157fe5b0414151561113b57fe5b8091505b5092915050565b600080828481151561115457fe5b0490508091505092915050565b60008073ffffffffffffffffffffffffffffffffffffffff168373ffffffffffffffffffffffffffffffffffffffff1614806111a357506111a28484610eda565b5b156111b1576000905061128c565b8360000180548060010182816111c791906113ac565b9160005260206000209001600060408051908101604052808773ffffffffffffffffffffffffffffffffffffffff1681526020018667ffffffffffffffff16815250909190915060008201518160000160006101000a81548173ffffffffffffffffffffffffffffffffffffffff021916908373ffffffffffffffffffffffffffffffffffffffff16021790555060208201518160000160146101000a81548167ffffffffffffffff021916908367ffffffffffffffff160217905550505050600190505b9392505050565b600080600090505b8360000180549050811015611332578273ffffffffffffffffffffffffffffffffffffffff1684600001828154811015156112d257fe5b906000526020600020900160000160009054906101000a900473ffffffffffffffffffffffffffffffffffffffff1673ffffffffffffffffffffffffffffffffffffffff1614156113255780915061133d565b808060010191505061129b565b6000151561133c57fe5b5b5092915050565b602060405190810160405280600081525090565b602060405190810160405280600081525090565b602060405190810160405280600081525090565b8154818355818115116113a7578183600052602060002091820191016113a691906113d8565b5b505050565b8154818355818115116113d3578183600052602060002091820191016113d291906113d8565b5b505050565b61143691905b8082111561143257600080820160006101000a81549073ffffffffffffffffffffffffffffffffffffffff02191690556000820160146101000a81549067ffffffffffffffff0219169055506001016113de565b5090565b905600a165627a7a723058209dbb0b5df131289ae12c988e3b96af86d1afd7ae6adc75542e2f8edaf12bbfa50029",
  "source": "pragma solidity 0.4.19;\n\nimport { Ownable } from \"zeppelin-solidity/contracts/ownership/Ownable.sol\";\nimport { SafeMath } from \"zeppelin-solidity/contracts/math/SafeMath.sol\";\nimport { MembersBookLib } from \"./MembersBookLib.sol\";\n\n\n/**\n * @title Token interface compatible with Pragmatic Hodlings\n * @author Wojciech Harzowski (https://github.com/harzo)\n * @author Dominik Kroliczek (https://github.com/kruligh)\n */\ncontract TransferableToken {\n    function transfer(address to, uint256 amount) public;\n    function balanceOf(address who) public view returns (uint256);\n}\n\n\n/**\n * @title Proportionally distribute contract's tokens to each registered hodler\n * @dev Proportion is calculated based on join date timestamp\n * @dev Group of hodlers and settlements are managed by contract owner\n * @author Wojciech Harzowski (https://github.com/harzo)\n * @author Dominik Kroliczek (https://github.com/kruligh)\n */\ncontract PragmaticHodlings is Ownable {\n\n    using SafeMath for uint256;\n    using MembersBookLib for MembersBookLib.MembersBook;\n\n    MembersBookLib.MembersBook private hodlers;\n\n    /**\n     * @dev Stores addresses added to book\n     */\n    modifier onlyValidAddress(address account) {\n        require(account != address(0));\n        _;\n    }\n\n    modifier onlyHodlersExist {\n        require(hodlers.entries.length != 0);\n        _;\n    }\n\n    modifier onlyExisting(address account) {\n        require(hodlers.contains(account));\n        _;\n    }\n\n    modifier onlyNotExisting(address account) {\n        require(!hodlers.contains(account));\n        _;\n    }\n\n    modifier onlySufficientAmount(TransferableToken token) {\n        require(token.balanceOf(this) > 0);\n        _;\n    }\n\n    modifier onlyPast(uint64 timestamp) {\n        // solhint-disable-next-line not-rely-on-time\n        require(now > timestamp);\n        _;\n    }\n\n    /**\n    * @dev New hodler has been added to book\n    * @param account address Hodler's address\n    * @param joinDate uint64 Hodler's joining timestamp\n    */\n    event HodlerAdded(address account, uint64 joinDate);\n\n    /**\n     * @dev Existing hodler has been removed\n     * @param account address Removed hodler address\n     */\n    event HodlerRemoved(address account);\n\n    /**\n     * @dev Token is settled on hodlers addresses\n     * @param token address The token address\n     * @param amount uint256 Settled amount\n     */\n    event TokenSettled(address token, uint256 amount);\n\n    /**\n     * @dev Adds new hodler to book\n     * @param account address Hodler's address\n     * @param joinDate uint64 Hodler's joining timestamp\n     */\n    function addHodler(address account, uint64 joinDate)\n        public\n        onlyOwner\n        onlyValidAddress(account)\n        onlyNotExisting(account)\n        onlyPast(joinDate)\n    {\n        hodlers.add(account, joinDate);\n        HodlerAdded(account, joinDate);\n    }\n\n    /**\n     * @dev Removes existing hodler from book\n     * @param account address Hodler's address whose should be removed\n     */\n    function removeHodler(address account)\n        public\n        onlyOwner\n        onlyValidAddress(account)\n        onlyExisting(account)\n    {\n        hodlers.remove(account);\n        HodlerRemoved(account);\n    }\n\n    /**\n     * @dev Settles given token on hodlers addresses\n     * @param token BasicToken The token to settle\n     */\n    function settleToken(TransferableToken token)\n        public\n        onlyOwner\n        onlyHodlersExist\n        onlySufficientAmount(token)\n    {\n        uint256 tokenAmount = token.balanceOf(this);\n\n        uint256[] memory tokenShares = calculateShares(tokenAmount);\n\n        for (uint i = 0; i < hodlers.entries.length; i++) {\n            token.transfer(hodlers.entries[i].account, tokenShares[i]);\n        }\n\n        TokenSettled(token, tokenAmount);\n    }\n\n    /**\n     * @dev Calculates proportional share in given amount\n     * @param amount uint256 Amount to share between hodlers\n     * @return tokenShares uint256[] Calculated shares\n     */\n    function calculateShares(uint256 amount)\n        public\n        view\n        returns (uint256[])\n    {\n        uint256[] memory temp = new uint256[](hodlers.entries.length);\n\n        uint256 sum = 0;\n        for (uint256 i = 0; i < temp.length; i++) {\n            // solhint-disable-next-line not-rely-on-time\n            temp[i] = now.sub(hodlers.entries[i].joinDate);\n            sum = sum.add(temp[i]);\n        }\n\n        uint256 sharesSum = 0;\n        for (i = 0; i < temp.length; i++) {\n            temp[i] = amount.mul(temp[i]).div(sum);\n            sharesSum += temp[i];\n        }\n\n        if (amount > sharesSum) { // undivided rest of token\n            temp[0] = temp[0].add(amount.sub(sharesSum));\n        }\n\n        return temp;\n    }\n\n    /**\n     * @dev Returns hodlers addresses with joining timestamps\n     * @return address[] Addresses of hodlers\n     * @return uint64[] joining timestamps. Related by index with addresses\n     */\n    function getHodlers()\n        public\n        view\n        returns (address[], uint64[])\n    {\n        address[] memory hodlersAddresses = new address[](hodlers.entries.length);\n        uint64[] memory hodlersTimestamps = new uint64[](hodlers.entries.length);\n\n        for (uint256 i = 0; i < hodlers.entries.length; i++) {\n            hodlersAddresses[i] = hodlers.entries[i].account;\n            hodlersTimestamps[i] = hodlers.entries[i].joinDate;\n        }\n\n        return (hodlersAddresses, hodlersTimestamps);\n    }\n\n    /**\n     * @param account address Hodler address\n     * @return bool whether account is registered as holder\n     */\n    function isHodler(address account)\n        public\n        view\n        returns (bool)\n    {\n        return hodlers.contains(account);\n    }\n}",
  "sourcePath": "/home/kruligh/src/pragmatic-holdings/contracts/contracts/PragmaticHodlings.sol",
  "compiler": {
    "name": "solc",
    "version": "0.4.19+commit.c4cbbb05.Emscripten.clang"
  },
  "schemaVersion": "1.0.1",
  "updatedAt": "2018-03-27T09:03:46.774Z"
}